{
  "contractName": "MetaIdentityManager",
  "abi": [
    {
      "constant": true,
      "inputs": [
        {
          "name": "",
          "type": "address"
        }
      ],
      "name": "migrationNewAddress",
      "outputs": [
        {
          "name": "",
          "type": "address"
        }
      ],
      "payable": false,
      "stateMutability": "view",
      "type": "function"
    },
    {
      "constant": true,
      "inputs": [
        {
          "name": "",
          "type": "address"
        }
      ],
      "name": "migrationInitiated",
      "outputs": [
        {
          "name": "",
          "type": "uint256"
        }
      ],
      "payable": false,
      "stateMutability": "view",
      "type": "function"
    },
    {
      "inputs": [
        {
          "name": "_userTimeLock",
          "type": "uint256"
        },
        {
          "name": "_adminTimeLock",
          "type": "uint256"
        },
        {
          "name": "_adminRate",
          "type": "uint256"
        },
        {
          "name": "_relayAddress",
          "type": "address"
        }
      ],
      "payable": false,
      "stateMutability": "nonpayable",
      "type": "constructor"
    },
    {
      "anonymous": false,
      "inputs": [
        {
          "indexed": true,
          "name": "identity",
          "type": "address"
        },
        {
          "indexed": true,
          "name": "creator",
          "type": "address"
        },
        {
          "indexed": false,
          "name": "owner",
          "type": "address"
        },
        {
          "indexed": true,
          "name": "recoveryKey",
          "type": "address"
        }
      ],
      "name": "LogIdentityCreated",
      "type": "event"
    },
    {
      "anonymous": false,
      "inputs": [
        {
          "indexed": true,
          "name": "identity",
          "type": "address"
        },
        {
          "indexed": true,
          "name": "owner",
          "type": "address"
        },
        {
          "indexed": false,
          "name": "instigator",
          "type": "address"
        }
      ],
      "name": "LogOwnerAdded",
      "type": "event"
    },
    {
      "anonymous": false,
      "inputs": [
        {
          "indexed": true,
          "name": "identity",
          "type": "address"
        },
        {
          "indexed": true,
          "name": "owner",
          "type": "address"
        },
        {
          "indexed": false,
          "name": "instigator",
          "type": "address"
        }
      ],
      "name": "LogOwnerRemoved",
      "type": "event"
    },
    {
      "anonymous": false,
      "inputs": [
        {
          "indexed": true,
          "name": "identity",
          "type": "address"
        },
        {
          "indexed": true,
          "name": "recoveryKey",
          "type": "address"
        },
        {
          "indexed": false,
          "name": "instigator",
          "type": "address"
        }
      ],
      "name": "LogRecoveryChanged",
      "type": "event"
    },
    {
      "anonymous": false,
      "inputs": [
        {
          "indexed": true,
          "name": "identity",
          "type": "address"
        },
        {
          "indexed": true,
          "name": "newIdManager",
          "type": "address"
        },
        {
          "indexed": false,
          "name": "instigator",
          "type": "address"
        }
      ],
      "name": "LogMigrationInitiated",
      "type": "event"
    },
    {
      "anonymous": false,
      "inputs": [
        {
          "indexed": true,
          "name": "identity",
          "type": "address"
        },
        {
          "indexed": true,
          "name": "newIdManager",
          "type": "address"
        },
        {
          "indexed": false,
          "name": "instigator",
          "type": "address"
        }
      ],
      "name": "LogMigrationCanceled",
      "type": "event"
    },
    {
      "anonymous": false,
      "inputs": [
        {
          "indexed": true,
          "name": "identity",
          "type": "address"
        },
        {
          "indexed": true,
          "name": "newIdManager",
          "type": "address"
        },
        {
          "indexed": false,
          "name": "instigator",
          "type": "address"
        }
      ],
      "name": "LogMigrationFinalized",
      "type": "event"
    },
    {
      "constant": false,
      "inputs": [
        {
          "name": "owner",
          "type": "address"
        },
        {
          "name": "recoveryKey",
          "type": "address"
        }
      ],
      "name": "createIdentity",
      "outputs": [],
      "payable": false,
      "stateMutability": "nonpayable",
      "type": "function"
    },
    {
      "constant": false,
      "inputs": [
        {
          "name": "owner",
          "type": "address"
        },
        {
          "name": "recoveryKey",
          "type": "address"
        },
        {
          "name": "destination",
          "type": "address"
        },
        {
          "name": "data",
          "type": "bytes"
        }
      ],
      "name": "createIdentityWithCall",
      "outputs": [],
      "payable": false,
      "stateMutability": "nonpayable",
      "type": "function"
    },
    {
      "constant": false,
      "inputs": [
        {
          "name": "owner",
          "type": "address"
        },
        {
          "name": "recoveryKey",
          "type": "address"
        }
      ],
      "name": "registerIdentity",
      "outputs": [],
      "payable": false,
      "stateMutability": "nonpayable",
      "type": "function"
    },
    {
      "constant": false,
      "inputs": [
        {
          "name": "sender",
          "type": "address"
        },
        {
          "name": "identity",
          "type": "address"
        },
        {
          "name": "destination",
          "type": "address"
        },
        {
          "name": "value",
          "type": "uint256"
        },
        {
          "name": "data",
          "type": "bytes"
        }
      ],
      "name": "forwardTo",
      "outputs": [],
      "payable": false,
      "stateMutability": "nonpayable",
      "type": "function"
    },
    {
      "constant": false,
      "inputs": [
        {
          "name": "sender",
          "type": "address"
        },
        {
          "name": "identity",
          "type": "address"
        },
        {
          "name": "newOwner",
          "type": "address"
        }
      ],
      "name": "addOwner",
      "outputs": [],
      "payable": false,
      "stateMutability": "nonpayable",
      "type": "function"
    },
    {
      "constant": false,
      "inputs": [
        {
          "name": "sender",
          "type": "address"
        },
        {
          "name": "identity",
          "type": "address"
        },
        {
          "name": "newOwner",
          "type": "address"
        }
      ],
      "name": "addOwnerFromRecovery",
      "outputs": [],
      "payable": false,
      "stateMutability": "nonpayable",
      "type": "function"
    },
    {
      "constant": false,
      "inputs": [
        {
          "name": "sender",
          "type": "address"
        },
        {
          "name": "identity",
          "type": "address"
        },
        {
          "name": "owner",
          "type": "address"
        }
      ],
      "name": "removeOwner",
      "outputs": [],
      "payable": false,
      "stateMutability": "nonpayable",
      "type": "function"
    },
    {
      "constant": false,
      "inputs": [
        {
          "name": "sender",
          "type": "address"
        },
        {
          "name": "identity",
          "type": "address"
        },
        {
          "name": "recoveryKey",
          "type": "address"
        }
      ],
      "name": "changeRecovery",
      "outputs": [],
      "payable": false,
      "stateMutability": "nonpayable",
      "type": "function"
    },
    {
      "constant": false,
      "inputs": [
        {
          "name": "sender",
          "type": "address"
        },
        {
          "name": "identity",
          "type": "address"
        },
        {
          "name": "newIdManager",
          "type": "address"
        }
      ],
      "name": "initiateMigration",
      "outputs": [],
      "payable": false,
      "stateMutability": "nonpayable",
      "type": "function"
    },
    {
      "constant": false,
      "inputs": [
        {
          "name": "sender",
          "type": "address"
        },
        {
          "name": "identity",
          "type": "address"
        }
      ],
      "name": "cancelMigration",
      "outputs": [],
      "payable": false,
      "stateMutability": "nonpayable",
      "type": "function"
    },
    {
      "constant": false,
      "inputs": [
        {
          "name": "sender",
          "type": "address"
        },
        {
          "name": "identity",
          "type": "address"
        }
      ],
      "name": "finalizeMigration",
      "outputs": [],
      "payable": false,
      "stateMutability": "nonpayable",
      "type": "function"
    },
    {
      "constant": true,
      "inputs": [
        {
          "name": "identity",
          "type": "address"
        },
        {
          "name": "owner",
          "type": "address"
        }
      ],
      "name": "isOwner",
      "outputs": [
        {
          "name": "",
          "type": "bool"
        }
      ],
      "payable": false,
      "stateMutability": "view",
      "type": "function"
    },
    {
      "constant": true,
      "inputs": [
        {
          "name": "identity",
          "type": "address"
        },
        {
          "name": "owner",
          "type": "address"
        }
      ],
      "name": "isOlderOwner",
      "outputs": [
        {
          "name": "",
          "type": "bool"
        }
      ],
      "payable": false,
      "stateMutability": "view",
      "type": "function"
    },
    {
      "constant": true,
      "inputs": [
        {
          "name": "identity",
          "type": "address"
        },
        {
          "name": "recoveryKey",
          "type": "address"
        }
      ],
      "name": "isRecovery",
      "outputs": [
        {
          "name": "",
          "type": "bool"
        }
      ],
      "payable": false,
      "stateMutability": "view",
      "type": "function"
    }
  ],
  "bytecode": "0x608060405234801561001057600080fd5b50604051608080612fbc8339810180604052810190808051906020019092919080519060200190929190805190602001909291908051906020019092919050505083831015151561006057600080fd5b82600081905550836001819055508160028190555080600360006101000a81548173ffffffffffffffffffffffffffffffffffffffff021916908373ffffffffffffffffffffffffffffffffffffffff16021790555050505050612ef3806100c96000396000f3006080604052600436106100e6576000357c0100000000000000000000000000000000000000000000000000000000900463ffffffff16806311fe12b3146100eb5780631a45fac7146101665780631e2629e1146101e95780633061e0ef1461026c57806332967ea0146102ef5780633c8ac88e1461036a578063422e33f314610433578063701b8826146104b6578063754fd35214610589578063781f5a831461060c5780637ddc02d41461066f578063a5967039146106ea578063a949c6371461074d578063c7576ed4146107d0578063c778427b14610833578063d10e73ab1461088a575b600080fd5b3480156100f757600080fd5b5061014c600480360381019080803573ffffffffffffffffffffffffffffffffffffffff169060200190929190803573ffffffffffffffffffffffffffffffffffffffff1690602001909291905050506108ed565b604051808215151515815260200191505060405180910390f35b34801561017257600080fd5b506101e7600480360381019080803573ffffffffffffffffffffffffffffffffffffffff169060200190929190803573ffffffffffffffffffffffffffffffffffffffff169060200190929190803573ffffffffffffffffffffffffffffffffffffffff169060200190929190505050610985565b005b3480156101f557600080fd5b5061026a600480360381019080803573ffffffffffffffffffffffffffffffffffffffff169060200190929190803573ffffffffffffffffffffffffffffffffffffffff169060200190929190803573ffffffffffffffffffffffffffffffffffffffff169060200190929190505050610c6e565b005b34801561027857600080fd5b506102ed600480360381019080803573ffffffffffffffffffffffffffffffffffffffff169060200190929190803573ffffffffffffffffffffffffffffffffffffffff169060200190929190803573ffffffffffffffffffffffffffffffffffffffff169060200190929190505050610e4b565b005b3480156102fb57600080fd5b50610350600480360381019080803573ffffffffffffffffffffffffffffffffffffffff169060200190929190803573ffffffffffffffffffffffffffffffffffffffff169060200190929190505050611135565b604051808215151515815260200191505060405180910390f35b34801561037657600080fd5b50610431600480360381019080803573ffffffffffffffffffffffffffffffffffffffff169060200190929190803573ffffffffffffffffffffffffffffffffffffffff169060200190929190803573ffffffffffffffffffffffffffffffffffffffff169060200190929190803590602001908201803590602001908080601f016020809104026020016040519081016040528093929190818152602001838380828437820191505050505050919291929050505061124a565b005b34801561043f57600080fd5b50610474600480360381019080803573ffffffffffffffffffffffffffffffffffffffff16906020019092919050505061158c565b604051808273ffffffffffffffffffffffffffffffffffffffff1673ffffffffffffffffffffffffffffffffffffffff16815260200191505060405180910390f35b3480156104c257600080fd5b50610587600480360381019080803573ffffffffffffffffffffffffffffffffffffffff169060200190929190803573ffffffffffffffffffffffffffffffffffffffff169060200190929190803573ffffffffffffffffffffffffffffffffffffffff16906020019092919080359060200190929190803590602001908201803590602001908080601f01602080910402602001604051908101604052809392919081815260200183838082843782019150505050505091929192905050506115bf565b005b34801561059557600080fd5b5061060a600480360381019080803573ffffffffffffffffffffffffffffffffffffffff169060200190929190803573ffffffffffffffffffffffffffffffffffffffff169060200190929190803573ffffffffffffffffffffffffffffffffffffffff169060200190929190505050611773565b005b34801561061857600080fd5b5061066d600480360381019080803573ffffffffffffffffffffffffffffffffffffffff169060200190929190803573ffffffffffffffffffffffffffffffffffffffff169060200190929190505050611abc565b005b34801561067b57600080fd5b506106d0600480360381019080803573ffffffffffffffffffffffffffffffffffffffff169060200190929190803573ffffffffffffffffffffffffffffffffffffffff169060200190929190505050611d2d565b604051808215151515815260200191505060405180910390f35b3480156106f657600080fd5b5061074b600480360381019080803573ffffffffffffffffffffffffffffffffffffffff169060200190929190803573ffffffffffffffffffffffffffffffffffffffff169060200190929190505050611e42565b005b34801561075957600080fd5b506107ce600480360381019080803573ffffffffffffffffffffffffffffffffffffffff169060200190929190803573ffffffffffffffffffffffffffffffffffffffff169060200190929190803573ffffffffffffffffffffffffffffffffffffffff169060200190929190505050612066565b005b3480156107dc57600080fd5b50610831600480360381019080803573ffffffffffffffffffffffffffffffffffffffff169060200190929190803573ffffffffffffffffffffffffffffffffffffffff16906020019092919050505061232f565b005b34801561083f57600080fd5b50610874600480360381019080803573ffffffffffffffffffffffffffffffffffffffff169060200190929190505050612785565b6040518082815260200191505060405180910390f35b34801561089657600080fd5b506108eb600480360381019080803573ffffffffffffffffffffffffffffffffffffffff169060200190929190803573ffffffffffffffffffffffffffffffffffffffff16906020019092919050505061279d565b005b60008173ffffffffffffffffffffffffffffffffffffffff16600560008573ffffffffffffffffffffffffffffffffffffffff1673ffffffffffffffffffffffffffffffffffffffff16815260200190815260200160002060009054906101000a900473ffffffffffffffffffffffffffffffffffffffff1673ffffffffffffffffffffffffffffffffffffffff1614905092915050565b600360009054906101000a900473ffffffffffffffffffffffffffffffffffffffff1673ffffffffffffffffffffffffffffffffffffffff163373ffffffffffffffffffffffffffffffffffffffff1614806109e657506109e5336129b4565b5b15156109f157600080fd5b81836109fd8282611135565b1515610a0857600080fd5b83856002544203600660008473ffffffffffffffffffffffffffffffffffffffff1673ffffffffffffffffffffffffffffffffffffffff16815260200190815260200160002060008373ffffffffffffffffffffffffffffffffffffffff1673ffffffffffffffffffffffffffffffffffffffff16815260200190815260200160002054101515610a9857600080fd5b42600660008473ffffffffffffffffffffffffffffffffffffffff1673ffffffffffffffffffffffffffffffffffffffff16815260200190815260200160002060008373ffffffffffffffffffffffffffffffffffffffff1673ffffffffffffffffffffffffffffffffffffffff168152602001908152602001600020819055508473ffffffffffffffffffffffffffffffffffffffff168773ffffffffffffffffffffffffffffffffffffffff1614151515610b5457600080fd5b600460008773ffffffffffffffffffffffffffffffffffffffff1673ffffffffffffffffffffffffffffffffffffffff16815260200190815260200160002060008673ffffffffffffffffffffffffffffffffffffffff1673ffffffffffffffffffffffffffffffffffffffff168152602001908152602001600020600090558473ffffffffffffffffffffffffffffffffffffffff168673ffffffffffffffffffffffffffffffffffffffff167f5e159cd4447854ae8b4aa048f91c8daad986faab696c3685030e1a5e5a4e8ced89604051808273ffffffffffffffffffffffffffffffffffffffff1673ffffffffffffffffffffffffffffffffffffffff16815260200191505060405180910390a350505050505050565b600360009054906101000a900473ffffffffffffffffffffffffffffffffffffffff1673ffffffffffffffffffffffffffffffffffffffff163373ffffffffffffffffffffffffffffffffffffffff161480610ccf5750610cce336129b4565b5b1515610cda57600080fd5b8183610ce68282611135565b1515610cf157600080fd5b42600760008673ffffffffffffffffffffffffffffffffffffffff1673ffffffffffffffffffffffffffffffffffffffff1681526020019081526020016000208190555082600860008673ffffffffffffffffffffffffffffffffffffffff1673ffffffffffffffffffffffffffffffffffffffff16815260200190815260200160002060006101000a81548173ffffffffffffffffffffffffffffffffffffffff021916908373ffffffffffffffffffffffffffffffffffffffff1602179055508273ffffffffffffffffffffffffffffffffffffffff168473ffffffffffffffffffffffffffffffffffffffff167fb7b4557c664a8a4a9a57f5e00f216de044a96f96fc84b70eaa6bd48cb078454187604051808273ffffffffffffffffffffffffffffffffffffffff1673ffffffffffffffffffffffffffffffffffffffff16815260200191505060405180910390a35050505050565b600360009054906101000a900473ffffffffffffffffffffffffffffffffffffffff1673ffffffffffffffffffffffffffffffffffffffff163373ffffffffffffffffffffffffffffffffffffffff161480610eac5750610eab336129b4565b5b1515610eb757600080fd5b8183610ec38282611135565b1515610ece57600080fd5b83856002544203600660008473ffffffffffffffffffffffffffffffffffffffff1673ffffffffffffffffffffffffffffffffffffffff16815260200190815260200160002060008373ffffffffffffffffffffffffffffffffffffffff1673ffffffffffffffffffffffffffffffffffffffff16815260200190815260200160002054101515610f5e57600080fd5b42600660008473ffffffffffffffffffffffffffffffffffffffff1673ffffffffffffffffffffffffffffffffffffffff16815260200190815260200160002060008373ffffffffffffffffffffffffffffffffffffffff1673ffffffffffffffffffffffffffffffffffffffff1681526020019081526020016000208190555084600073ffffffffffffffffffffffffffffffffffffffff168173ffffffffffffffffffffffffffffffffffffffff161415151561101c57600080fd5b85600560008973ffffffffffffffffffffffffffffffffffffffff1673ffffffffffffffffffffffffffffffffffffffff16815260200190815260200160002060006101000a81548173ffffffffffffffffffffffffffffffffffffffff021916908373ffffffffffffffffffffffffffffffffffffffff1602179055508573ffffffffffffffffffffffffffffffffffffffff168773ffffffffffffffffffffffffffffffffffffffff167fbd1ad05c16aafa75ac8c1d6b8264f47ad9f3045596f667c9476f3f749c0187098a604051808273ffffffffffffffffffffffffffffffffffffffff1673ffffffffffffffffffffffffffffffffffffffff16815260200191505060405180910390a35050505050505050565b600080600460008573ffffffffffffffffffffffffffffffffffffffff1673ffffffffffffffffffffffffffffffffffffffff16815260200190815260200160002060008473ffffffffffffffffffffffffffffffffffffffff1673ffffffffffffffffffffffffffffffffffffffff16815260200190815260200160002054118015611242575042600054600460008673ffffffffffffffffffffffffffffffffffffffff1673ffffffffffffffffffffffffffffffffffffffff16815260200190815260200160002060008573ffffffffffffffffffffffffffffffffffffffff1673ffffffffffffffffffffffffffffffffffffffff168152602001908152602001600020540111155b905092915050565b600083600073ffffffffffffffffffffffffffffffffffffffff168173ffffffffffffffffffffffffffffffffffffffff161415151561128957600080fd5b6112916129f1565b604051809103906000f0801580156112ad573d6000803e3d6000fd5b5091506000544203600460008473ffffffffffffffffffffffffffffffffffffffff1673ffffffffffffffffffffffffffffffffffffffff16815260200190815260200160002060008873ffffffffffffffffffffffffffffffffffffffff1673ffffffffffffffffffffffffffffffffffffffff1681526020019081526020016000208190555084600560008473ffffffffffffffffffffffffffffffffffffffff1673ffffffffffffffffffffffffffffffffffffffff16815260200190815260200160002060006101000a81548173ffffffffffffffffffffffffffffffffffffffff021916908373ffffffffffffffffffffffffffffffffffffffff1602179055508473ffffffffffffffffffffffffffffffffffffffff163373ffffffffffffffffffffffffffffffffffffffff168373ffffffffffffffffffffffffffffffffffffffff167f14e580ab5cd452b772e031536a7c893ec705152c17b3665c6671b382c3ee626689604051808273ffffffffffffffffffffffffffffffffffffffff1673ffffffffffffffffffffffffffffffffffffffff16815260200191505060405180910390a48173ffffffffffffffffffffffffffffffffffffffff1663d7f31eb9856000866040518463ffffffff167c0100000000000000000000000000000000000000000000000000000000028152600401808473ffffffffffffffffffffffffffffffffffffffff1673ffffffffffffffffffffffffffffffffffffffff16815260200183815260200180602001828103825283818151815260200191508051906020019080838360005b8381101561151e578082015181840152602081019050611503565b50505050905090810190601f16801561154b5780820380516001836020036101000a031916815260200191505b50945050505050600060405180830381600087803b15801561156c57600080fd5b505af1158015611580573d6000803e3d6000fd5b50505050505050505050565b60086020528060005260406000206000915054906101000a900473ffffffffffffffffffffffffffffffffffffffff1681565b600360009054906101000a900473ffffffffffffffffffffffffffffffffffffffff1673ffffffffffffffffffffffffffffffffffffffff163373ffffffffffffffffffffffffffffffffffffffff161480611620575061161f336129b4565b5b151561162b57600080fd5b83856116378282611d2d565b151561164257600080fd5b8573ffffffffffffffffffffffffffffffffffffffff1663d7f31eb98686866040518463ffffffff167c0100000000000000000000000000000000000000000000000000000000028152600401808473ffffffffffffffffffffffffffffffffffffffff1673ffffffffffffffffffffffffffffffffffffffff16815260200183815260200180602001828103825283818151815260200191508051906020019080838360005b838110156117045780820151818401526020810190506116e9565b50505050905090810190601f1680156117315780820380516001836020036101000a031916815260200191505b50945050505050600060405180830381600087803b15801561175257600080fd5b505af1158015611766573d6000803e3d6000fd5b5050505050505050505050565b600360009054906101000a900473ffffffffffffffffffffffffffffffffffffffff1673ffffffffffffffffffffffffffffffffffffffff163373ffffffffffffffffffffffffffffffffffffffff1614806117d457506117d3336129b4565b5b15156117df57600080fd5b81838073ffffffffffffffffffffffffffffffffffffffff16600560008473ffffffffffffffffffffffffffffffffffffffff1673ffffffffffffffffffffffffffffffffffffffff16815260200190815260200160002060009054906101000a900473ffffffffffffffffffffffffffffffffffffffff1673ffffffffffffffffffffffffffffffffffffffff1614151561187a57600080fd5b83856002544203600660008473ffffffffffffffffffffffffffffffffffffffff1673ffffffffffffffffffffffffffffffffffffffff16815260200190815260200160002060008373ffffffffffffffffffffffffffffffffffffffff1673ffffffffffffffffffffffffffffffffffffffff1681526020019081526020016000205410151561190a57600080fd5b42600660008473ffffffffffffffffffffffffffffffffffffffff1673ffffffffffffffffffffffffffffffffffffffff16815260200190815260200160002060008373ffffffffffffffffffffffffffffffffffffffff1673ffffffffffffffffffffffffffffffffffffffff168152602001908152602001600020819055506119958686611d2d565b1515156119a157600080fd5b42600460008873ffffffffffffffffffffffffffffffffffffffff1673ffffffffffffffffffffffffffffffffffffffff16815260200190815260200160002060008773ffffffffffffffffffffffffffffffffffffffff1673ffffffffffffffffffffffffffffffffffffffff168152602001908152602001600020819055508473ffffffffffffffffffffffffffffffffffffffff168673ffffffffffffffffffffffffffffffffffffffff167f8672e8532f3edff41d3acf0cd4be6ff900e427461b81d094f0197354471cb3c689604051808273ffffffffffffffffffffffffffffffffffffffff1673ffffffffffffffffffffffffffffffffffffffff16815260200191505060405180910390a350505050505050565b80600073ffffffffffffffffffffffffffffffffffffffff168173ffffffffffffffffffffffffffffffffffffffff1614151515611af957600080fd5b6000600560003373ffffffffffffffffffffffffffffffffffffffff1673ffffffffffffffffffffffffffffffffffffffff16815260200190815260200160002060009054906101000a900473ffffffffffffffffffffffffffffffffffffffff1673ffffffffffffffffffffffffffffffffffffffff16141515611b7d57600080fd5b6000544203600460003373ffffffffffffffffffffffffffffffffffffffff1673ffffffffffffffffffffffffffffffffffffffff16815260200190815260200160002060008573ffffffffffffffffffffffffffffffffffffffff1673ffffffffffffffffffffffffffffffffffffffff1681526020019081526020016000208190555081600560003373ffffffffffffffffffffffffffffffffffffffff1673ffffffffffffffffffffffffffffffffffffffff16815260200190815260200160002060006101000a81548173ffffffffffffffffffffffffffffffffffffffff021916908373ffffffffffffffffffffffffffffffffffffffff1602179055508173ffffffffffffffffffffffffffffffffffffffff163373ffffffffffffffffffffffffffffffffffffffff163373ffffffffffffffffffffffffffffffffffffffff167f14e580ab5cd452b772e031536a7c893ec705152c17b3665c6671b382c3ee626686604051808273ffffffffffffffffffffffffffffffffffffffff1673ffffffffffffffffffffffffffffffffffffffff16815260200191505060405180910390a4505050565b600080600460008573ffffffffffffffffffffffffffffffffffffffff1673ffffffffffffffffffffffffffffffffffffffff16815260200190815260200160002060008473ffffffffffffffffffffffffffffffffffffffff1673ffffffffffffffffffffffffffffffffffffffff16815260200190815260200160002054118015611e3a575042600154600460008673ffffffffffffffffffffffffffffffffffffffff1673ffffffffffffffffffffffffffffffffffffffff16815260200190815260200160002060008573ffffffffffffffffffffffffffffffffffffffff1673ffffffffffffffffffffffffffffffffffffffff168152602001908152602001600020540111155b905092915050565b6000600360009054906101000a900473ffffffffffffffffffffffffffffffffffffffff1673ffffffffffffffffffffffffffffffffffffffff163373ffffffffffffffffffffffffffffffffffffffff161480611ea55750611ea4336129b4565b5b1515611eb057600080fd5b8183611ebc8282611d2d565b1515611ec757600080fd5b600860008573ffffffffffffffffffffffffffffffffffffffff1673ffffffffffffffffffffffffffffffffffffffff16815260200190815260200160002060009054906101000a900473ffffffffffffffffffffffffffffffffffffffff169250600760008573ffffffffffffffffffffffffffffffffffffffff1673ffffffffffffffffffffffffffffffffffffffff16815260200190815260200160002060009055600860008573ffffffffffffffffffffffffffffffffffffffff1673ffffffffffffffffffffffffffffffffffffffff16815260200190815260200160002060006101000a81549073ffffffffffffffffffffffffffffffffffffffff02191690558273ffffffffffffffffffffffffffffffffffffffff168473ffffffffffffffffffffffffffffffffffffffff167f60e805c5650597523aba29fb00a59c856d925c672bce1ea7d579f03aef3a10ce87604051808273ffffffffffffffffffffffffffffffffffffffff1673ffffffffffffffffffffffffffffffffffffffff16815260200191505060405180910390a35050505050565b600360009054906101000a900473ffffffffffffffffffffffffffffffffffffffff1673ffffffffffffffffffffffffffffffffffffffff163373ffffffffffffffffffffffffffffffffffffffff1614806120c757506120c6336129b4565b5b15156120d257600080fd5b81836120de8282611135565b15156120e957600080fd5b83856002544203600660008473ffffffffffffffffffffffffffffffffffffffff1673ffffffffffffffffffffffffffffffffffffffff16815260200190815260200160002060008373ffffffffffffffffffffffffffffffffffffffff1673ffffffffffffffffffffffffffffffffffffffff1681526020019081526020016000205410151561217957600080fd5b42600660008473ffffffffffffffffffffffffffffffffffffffff1673ffffffffffffffffffffffffffffffffffffffff16815260200190815260200160002060008373ffffffffffffffffffffffffffffffffffffffff1673ffffffffffffffffffffffffffffffffffffffff168152602001908152602001600020819055506122048686611d2d565b15151561221057600080fd5b6001544203600460008873ffffffffffffffffffffffffffffffffffffffff1673ffffffffffffffffffffffffffffffffffffffff16815260200190815260200160002060008773ffffffffffffffffffffffffffffffffffffffff1673ffffffffffffffffffffffffffffffffffffffff168152602001908152602001600020819055508473ffffffffffffffffffffffffffffffffffffffff168673ffffffffffffffffffffffffffffffffffffffff167f8672e8532f3edff41d3acf0cd4be6ff900e427461b81d094f0197354471cb3c689604051808273ffffffffffffffffffffffffffffffffffffffff1673ffffffffffffffffffffffffffffffffffffffff16815260200191505060405180910390a350505050505050565b6000600360009054906101000a900473ffffffffffffffffffffffffffffffffffffffff1673ffffffffffffffffffffffffffffffffffffffff163373ffffffffffffffffffffffffffffffffffffffff1614806123925750612391336129b4565b5b151561239d57600080fd5b81836123a98282611135565b15156123b457600080fd5b6000600760008673ffffffffffffffffffffffffffffffffffffffff1673ffffffffffffffffffffffffffffffffffffffff1681526020019081526020016000205414158015612446575042600054600760008773ffffffffffffffffffffffffffffffffffffffff1673ffffffffffffffffffffffffffffffffffffffff1681526020019081526020016000205401105b151561245157600080fd5b600860008573ffffffffffffffffffffffffffffffffffffffff1673ffffffffffffffffffffffffffffffffffffffff16815260200190815260200160002060009054906101000a900473ffffffffffffffffffffffffffffffffffffffff169250600760008573ffffffffffffffffffffffffffffffffffffffff1673ffffffffffffffffffffffffffffffffffffffff16815260200190815260200160002060009055600860008573ffffffffffffffffffffffffffffffffffffffff1673ffffffffffffffffffffffffffffffffffffffff16815260200190815260200160002060006101000a81549073ffffffffffffffffffffffffffffffffffffffff02191690558373ffffffffffffffffffffffffffffffffffffffff16631a695230846040518263ffffffff167c0100000000000000000000000000000000000000000000000000000000028152600401808273ffffffffffffffffffffffffffffffffffffffff1673ffffffffffffffffffffffffffffffffffffffff168152602001915050600060405180830381600087803b1580156125f357600080fd5b505af1158015612607573d6000803e3d6000fd5b50505050600560008573ffffffffffffffffffffffffffffffffffffffff1673ffffffffffffffffffffffffffffffffffffffff16815260200190815260200160002060006101000a81549073ffffffffffffffffffffffffffffffffffffffff0219169055600460008573ffffffffffffffffffffffffffffffffffffffff1673ffffffffffffffffffffffffffffffffffffffff16815260200190815260200160002060008673ffffffffffffffffffffffffffffffffffffffff1673ffffffffffffffffffffffffffffffffffffffff168152602001908152602001600020600090558273ffffffffffffffffffffffffffffffffffffffff168473ffffffffffffffffffffffffffffffffffffffff167f565ed5a2d5e196b82acb6ff1149b699c2b13169c7d34412d736d3c380de64f3187604051808273ffffffffffffffffffffffffffffffffffffffff1673ffffffffffffffffffffffffffffffffffffffff16815260200191505060405180910390a35050505050565b60076020528060005260406000206000915090505481565b600081600073ffffffffffffffffffffffffffffffffffffffff168173ffffffffffffffffffffffffffffffffffffffff16141515156127dc57600080fd5b6127e46129f1565b604051809103906000f080158015612800573d6000803e3d6000fd5b5091506000544203600460008473ffffffffffffffffffffffffffffffffffffffff1673ffffffffffffffffffffffffffffffffffffffff16815260200190815260200160002060008673ffffffffffffffffffffffffffffffffffffffff1673ffffffffffffffffffffffffffffffffffffffff1681526020019081526020016000208190555082600560008473ffffffffffffffffffffffffffffffffffffffff1673ffffffffffffffffffffffffffffffffffffffff16815260200190815260200160002060006101000a81548173ffffffffffffffffffffffffffffffffffffffff021916908373ffffffffffffffffffffffffffffffffffffffff1602179055508273ffffffffffffffffffffffffffffffffffffffff163373ffffffffffffffffffffffffffffffffffffffff168373ffffffffffffffffffffffffffffffffffffffff167f14e580ab5cd452b772e031536a7c893ec705152c17b3665c6671b382c3ee626687604051808273ffffffffffffffffffffffffffffffffffffffff1673ffffffffffffffffffffffffffffffffffffffff16815260200191505060405180910390a450505050565b60006024600036905010156129cc57600090506129ec565b73ffffffffffffffffffffffffffffffffffffffff600435811683149150505b919050565b6040516104c680612a028339019056006080604052336000806101000a81548173ffffffffffffffffffffffffffffffffffffffff021916908373ffffffffffffffffffffffffffffffffffffffff160217905550610473806100536000396000f300608060405260043610610062576000357c0100000000000000000000000000000000000000000000000000000000900463ffffffff1680631a695230146100b25780632f54bf6e146100f55780638da5cb5b14610150578063d7f31eb9146101a7575b3373ffffffffffffffffffffffffffffffffffffffff167f88a5966d370b9919b20f3e2c13ff65706f196a4e32cc2c12bf57088f88525874346040518082815260200191505060405180910390a2005b3480156100be57600080fd5b506100f3600480360381019080803573ffffffffffffffffffffffffffffffffffffffff16906020019092919050505061023a565b005b34801561010157600080fd5b50610136600480360381019080803573ffffffffffffffffffffffffffffffffffffffff1690602001909291905050506102c7565b604051808215151515815260200191505060405180910390f35b34801561015c57600080fd5b50610165610320565b604051808273ffffffffffffffffffffffffffffffffffffffff1673ffffffffffffffffffffffffffffffffffffffff16815260200191505060405180910390f35b3480156101b357600080fd5b50610238600480360381019080803573ffffffffffffffffffffffffffffffffffffffff16906020019092919080359060200190929190803590602001908201803590602001908080601f0160208091040260200160405190810160405280939291908181526020018383808284378201915050505050509192919290505050610345565b005b610243336102c7565b151561024e57600080fd5b3073ffffffffffffffffffffffffffffffffffffffff168173ffffffffffffffffffffffffffffffffffffffff161415156102c457806000806101000a81548173ffffffffffffffffffffffffffffffffffffffff021916908373ffffffffffffffffffffffffffffffffffffffff1602179055505b50565b60008060009054906101000a900473ffffffffffffffffffffffffffffffffffffffff1673ffffffffffffffffffffffffffffffffffffffff168273ffffffffffffffffffffffffffffffffffffffff16149050919050565b6000809054906101000a900473ffffffffffffffffffffffffffffffffffffffff1681565b61034e336102c7565b151561035957600080fd5b61036483838361042f565b151561036f57600080fd5b8273ffffffffffffffffffffffffffffffffffffffff167fc1de93dfa06362c6a616cde73ec17d116c0d588dd1df70f27f91b500de207c4183836040518083815260200180602001828103825283818151815260200191508051906020019080838360005b838110156103ef5780820151818401526020810190506103d4565b50505050905090810190601f16801561041c5780820380516001836020036101000a031916815260200191505b50935050505060405180910390a2505050565b600080600083516020850186885af1905093925050505600a165627a7a72305820569d0719b09f3dd5720893b112825d9b3d7580dd55727c14fded8b54d3f754890029a165627a7a72305820690e0ce7567a37eaffeb77e54d3c87a933bb46947adaa8788cd41c790b9c169d0029",
  "source": "pragma solidity 0.4.24;\r\nimport \"./Proxy.sol\";\r\n\r\n\r\ncontract MetaIdentityManager {\r\n    uint adminTimeLock;\r\n    uint userTimeLock;\r\n    uint adminRate;\r\n    address relay;\r\n\r\n    event LogIdentityCreated(\r\n        address indexed identity,\r\n        address indexed creator,\r\n        address owner,\r\n        address indexed recoveryKey);\r\n\r\n    event LogOwnerAdded(\r\n        address indexed identity,\r\n        address indexed owner,\r\n        address instigator);\r\n\r\n    event LogOwnerRemoved(\r\n        address indexed identity,\r\n        address indexed owner,\r\n        address instigator);\r\n\r\n    event LogRecoveryChanged(\r\n        address indexed identity,\r\n        address indexed recoveryKey,\r\n        address instigator);\r\n\r\n    event LogMigrationInitiated(\r\n        address indexed identity,\r\n        address indexed newIdManager,\r\n        address instigator);\r\n\r\n    event LogMigrationCanceled(\r\n        address indexed identity,\r\n        address indexed newIdManager,\r\n        address instigator);\r\n\r\n    event LogMigrationFinalized(\r\n        address indexed identity,\r\n        address indexed newIdManager,\r\n        address instigator);\r\n\r\n    mapping(address => mapping(address => uint)) owners;\r\n    mapping(address => address) recoveryKeys;\r\n    mapping(address => mapping(address => uint)) limiter;\r\n    mapping(address => uint) public migrationInitiated;\r\n    mapping(address => address) public migrationNewAddress;\r\n\r\n    modifier onlyAuthorized() {\r\n        require(msg.sender == relay || checkMessageData(msg.sender));\r\n        _;\r\n    }\r\n\r\n    modifier onlyOwner(address identity, address sender) {\r\n        require(isOwner(identity, sender));\r\n        _;\r\n    }\r\n\r\n    modifier onlyOlderOwner(address identity, address sender) {\r\n        require(isOlderOwner(identity, sender));\r\n        _;\r\n    }\r\n\r\n    modifier onlyRecovery(address identity, address sender) {\r\n        require(recoveryKeys[identity] == sender);\r\n        _;\r\n    }\r\n\r\n    modifier rateLimited(Proxy identity, address sender) {\r\n        require(limiter[identity][sender] < (now - adminRate));\r\n        limiter[identity][sender] = now;\r\n        _;\r\n    }\r\n\r\n    modifier validAddress(address addr) { //protects against some weird attacks\r\n        require(addr != address(0));\r\n        _;\r\n    }\r\n\r\n    /// @dev Contract constructor sets initial timelocks and meta-tx relay address\r\n    /// @param _userTimeLock Time before new owner added by recovery can control proxy\r\n    /// @param _adminTimeLock Time before new owner can add/remove owners\r\n    /// @param _adminRate Time period used for rate limiting a given key for admin functionality\r\n    /// @param _relayAddress Address of meta transaction relay contract\r\n    function MetaIdentityManager(uint _userTimeLock, uint _adminTimeLock, uint _adminRate, address _relayAddress) {\r\n        require(_adminTimeLock >= _userTimeLock);\r\n        adminTimeLock = _adminTimeLock;\r\n        userTimeLock = _userTimeLock;\r\n        adminRate = _adminRate;\r\n        relay = _relayAddress;\r\n    }\r\n\r\n    /// @dev Creates a new proxy contract for an owner and recovery\r\n    /// @param owner Key who can use this contract to control proxy. Given full power\r\n    /// @param recoveryKey Key of recovery network or address from seed to recovery proxy\r\n    /// Gas cost of ~300,000\r\n    function createIdentity(address owner, address recoveryKey) public validAddress(recoveryKey) {\r\n        Proxy identity = new Proxy();\r\n        owners[identity][owner] = now - adminTimeLock; // This is to ensure original owner has full power from day one\r\n        recoveryKeys[identity] = recoveryKey;\r\n        LogIdentityCreated(identity, msg.sender, owner,  recoveryKey);\r\n    }\r\n\r\n    /// @dev Creates a new proxy contract for an owner and recovery and allows an initial forward call which would be to set the registry in our case\r\n    /// @param owner Key who can use this contract to control proxy. Given full power\r\n    /// @param recoveryKey Key of recovery network or address from seed to recovery proxy\r\n    /// @param destination Address of contract to be called after proxy is created\r\n    /// @param data of function to be called at the destination contract\r\n    function createIdentityWithCall(address owner, address recoveryKey, address destination, bytes data) public validAddress(recoveryKey) {\r\n        Proxy identity = new Proxy();\r\n        owners[identity][owner] = now - adminTimeLock; // This is to ensure original owner has full power from day one\r\n        recoveryKeys[identity] = recoveryKey;\r\n        LogIdentityCreated(identity, msg.sender, owner,  recoveryKey);\r\n        identity.forward(destination, 0, data);\r\n    }\r\n\r\n    /// @dev Allows a user to transfer control of existing proxy to this contract. Must come through proxy\r\n    /// @param owner Key who can use this contract to control proxy. Given full power\r\n    /// @param recoveryKey Key of recovery network or address from seed to recovery proxy\r\n    /// Note: User must change owner of proxy to this contract after calling this\r\n    function registerIdentity(address owner, address recoveryKey) public validAddress(recoveryKey) {\r\n        require(recoveryKeys[msg.sender] == 0); // Deny any funny business\r\n        owners[msg.sender][owner] = now - adminTimeLock; // Owner has full power from day one\r\n        recoveryKeys[msg.sender] = recoveryKey;\r\n        LogIdentityCreated(msg.sender, msg.sender, owner, recoveryKey);\r\n    }\r\n\r\n    /// @dev Allows a user to forward a call through their proxy.\r\n    function forwardTo(address sender, Proxy identity, address destination, uint value, bytes data) public\r\n        onlyAuthorized\r\n        onlyOwner(identity, sender)\r\n    {\r\n        identity.forward(destination, value, data);\r\n    }\r\n\r\n    /// @dev Allows an olderOwner to add a new owner instantly\r\n    function addOwner(address sender, Proxy identity, address newOwner) public\r\n        onlyAuthorized\r\n        onlyOlderOwner(identity, sender)\r\n        rateLimited(identity, sender)\r\n    {\r\n        require(!isOwner(identity, newOwner));\r\n        owners[identity][newOwner] = now - userTimeLock;\r\n        LogOwnerAdded(identity, newOwner, sender);\r\n    }\r\n\r\n    /// @dev Allows a recoveryKey to add a new owner with userTimeLock waiting time\r\n    function addOwnerFromRecovery(address sender, Proxy identity, address newOwner) public\r\n        onlyAuthorized\r\n        onlyRecovery(identity, sender)\r\n        rateLimited(identity, sender)\r\n    {\r\n        require(!isOwner(identity, newOwner));\r\n        owners[identity][newOwner] = now;\r\n        LogOwnerAdded(identity, newOwner, sender);\r\n    }\r\n\r\n    /// @dev Allows an owner to remove another owner instantly\r\n    function removeOwner(address sender, Proxy identity, address owner) public\r\n        onlyAuthorized\r\n        onlyOlderOwner(identity, sender)\r\n        rateLimited(identity, sender)\r\n    {\r\n        // an owner should not be allowed to remove itself\r\n        require(sender != owner);\r\n        delete owners[identity][owner];\r\n        LogOwnerRemoved(identity, owner, sender);\r\n    }\r\n\r\n    /// @dev Allows an owner to change the recoveryKey instantly\r\n    function changeRecovery(address sender, Proxy identity, address recoveryKey) public\r\n        onlyAuthorized\r\n        onlyOlderOwner(identity, sender)\r\n        rateLimited(identity, sender)\r\n        validAddress(recoveryKey)\r\n    {\r\n        recoveryKeys[identity] = recoveryKey;\r\n        LogRecoveryChanged(identity, recoveryKey, sender);\r\n    }\r\n\r\n    /// @dev Allows an owner to begin process of transfering proxy to new IdentityManager\r\n    function initiateMigration(address sender, Proxy identity, address newIdManager) public\r\n        onlyAuthorized\r\n        onlyOlderOwner(identity, sender)\r\n    {\r\n        migrationInitiated[identity] = now;\r\n        migrationNewAddress[identity] = newIdManager;\r\n        LogMigrationInitiated(identity, newIdManager, sender);\r\n    }\r\n\r\n    /// @dev Allows an owner to cancel the process of transfering proxy to new IdentityManager\r\n    function cancelMigration(address sender, Proxy identity) public\r\n        onlyAuthorized\r\n        onlyOwner(identity, sender)\r\n    {\r\n        address canceledManager = migrationNewAddress[identity];\r\n        delete migrationInitiated[identity];\r\n        delete migrationNewAddress[identity];\r\n        LogMigrationCanceled(identity, canceledManager, sender);\r\n    }\r\n\r\n    /// @dev Allows an owner to finalize and completly transfer proxy to new IdentityManager\r\n    /// Note: before transfering to a new address, make sure this address is \"ready to recieve\" the proxy.\r\n    /// Not doing so risks the proxy becoming stuck.\r\n    function finalizeMigration(address sender, Proxy identity) onlyAuthorized onlyOlderOwner(identity, sender) {\r\n        require(migrationInitiated[identity] != 0 && migrationInitiated[identity] + adminTimeLock < now);\r\n        address newIdManager = migrationNewAddress[identity];\r\n        delete migrationInitiated[identity];\r\n        delete migrationNewAddress[identity];\r\n        identity.transfer(newIdManager);\r\n        delete recoveryKeys[identity];\r\n        // We can only delete the owner that we know of. All other owners\r\n        // needs to be removed before a call to this method.\r\n        delete owners[identity][sender];\r\n        LogMigrationFinalized(identity, newIdManager, sender);\r\n    }\r\n\r\n    //Checks that address a is the first input in msg.data.\r\n    //Has very minimal gas overhead.\r\n    function checkMessageData(address a) internal constant returns (bool t) {\r\n        if (msg.data.length < 36) return false;\r\n        assembly {\r\n            let mask := 0xFFFFFFFFFFFFFFFFFFFFFFFFFFFFFFFFFFFFFFFF\r\n            t := eq(a, and(mask, calldataload(4)))\r\n        }\r\n    }\r\n\r\n    function isOwner(address identity, address owner) public constant returns (bool) {\r\n        return (owners[identity][owner] > 0 && (owners[identity][owner] + userTimeLock) <= now);\r\n    }\r\n\r\n    function isOlderOwner(address identity, address owner) public constant returns (bool) {\r\n        return (owners[identity][owner] > 0 && (owners[identity][owner] + adminTimeLock) <= now);\r\n    }\r\n\r\n    function isRecovery(address identity, address recoveryKey) public constant returns (bool) {\r\n        return recoveryKeys[identity] == recoveryKey;\r\n    }\r\n}\r\n",
  "sourcePath": "/mnt/c/myproject/dapps/contracts/uport-identity/MetaIdentityManager.sol",
  "compiler": {
    "name": "solc",
    "version": "0.4.24+commit.e67f0147.Emscripten.clang"
  },
  "schemaVersion": "2.0.0",
  "updatedAt": "2018-09-04T07:38:50.558Z"
}