{
  "contractName": "ReCheck",
  "abi": [
    {
      "constant": true,
      "inputs": [
        {
          "name": "",
          "type": "uint256"
        }
      ],
      "name": "posts",
      "outputs": [
        {
          "name": "text",
          "type": "string"
        }
      ],
      "payable": false,
      "stateMutability": "view",
      "type": "function"
    },
    {
      "constant": true,
      "inputs": [
        {
          "name": "",
          "type": "uint256"
        }
      ],
      "name": "commentFromAccount",
      "outputs": [
        {
          "name": "",
          "type": "address"
        }
      ],
      "payable": false,
      "stateMutability": "view",
      "type": "function"
    },
    {
      "constant": false,
      "inputs": [],
      "name": "renounceOwnership",
      "outputs": [],
      "payable": false,
      "stateMutability": "nonpayable",
      "type": "function"
    },
    {
      "constant": true,
      "inputs": [],
      "name": "owner",
      "outputs": [
        {
          "name": "",
          "type": "address"
        }
      ],
      "payable": false,
      "stateMutability": "view",
      "type": "function"
    },
    {
      "constant": true,
      "inputs": [
        {
          "name": "",
          "type": "uint256"
        }
      ],
      "name": "comments",
      "outputs": [
        {
          "name": "text",
          "type": "string"
        }
      ],
      "payable": false,
      "stateMutability": "view",
      "type": "function"
    },
    {
      "constant": true,
      "inputs": [
        {
          "name": "",
          "type": "address"
        },
        {
          "name": "",
          "type": "uint256"
        }
      ],
      "name": "postsFromAccount",
      "outputs": [
        {
          "name": "",
          "type": "uint256"
        }
      ],
      "payable": false,
      "stateMutability": "view",
      "type": "function"
    },
    {
      "constant": true,
      "inputs": [
        {
          "name": "",
          "type": "uint256"
        },
        {
          "name": "",
          "type": "uint256"
        }
      ],
      "name": "commentsFromPost",
      "outputs": [
        {
          "name": "",
          "type": "uint256"
        }
      ],
      "payable": false,
      "stateMutability": "view",
      "type": "function"
    },
    {
      "constant": false,
      "inputs": [
        {
          "name": "_newOwner",
          "type": "address"
        }
      ],
      "name": "transferOwnership",
      "outputs": [],
      "payable": false,
      "stateMutability": "nonpayable",
      "type": "function"
    },
    {
      "inputs": [],
      "payable": false,
      "stateMutability": "nonpayable",
      "type": "constructor"
    },
    {
      "anonymous": false,
      "inputs": [
        {
          "indexed": false,
          "name": "postId",
          "type": "uint256"
        },
        {
          "indexed": false,
          "name": "commentId",
          "type": "uint256"
        },
        {
          "indexed": false,
          "name": "owner",
          "type": "address"
        }
      ],
      "name": "NewPostAdded",
      "type": "event"
    },
    {
      "anonymous": false,
      "inputs": [
        {
          "indexed": true,
          "name": "previousOwner",
          "type": "address"
        }
      ],
      "name": "OwnershipRenounced",
      "type": "event"
    },
    {
      "anonymous": false,
      "inputs": [
        {
          "indexed": true,
          "name": "previousOwner",
          "type": "address"
        },
        {
          "indexed": true,
          "name": "newOwner",
          "type": "address"
        }
      ],
      "name": "OwnershipTransferred",
      "type": "event"
    },
    {
      "constant": true,
      "inputs": [],
      "name": "hasPosts",
      "outputs": [
        {
          "name": "_hasPosts",
          "type": "bool"
        }
      ],
      "payable": false,
      "stateMutability": "view",
      "type": "function"
    },
    {
      "constant": false,
      "inputs": [
        {
          "name": "_text",
          "type": "string"
        }
      ],
      "name": "newPost",
      "outputs": [],
      "payable": false,
      "stateMutability": "nonpayable",
      "type": "function"
    },
    {
      "constant": false,
      "inputs": [
        {
          "name": "_postId",
          "type": "uint256"
        },
        {
          "name": "_text",
          "type": "string"
        }
      ],
      "name": "newComment",
      "outputs": [],
      "payable": false,
      "stateMutability": "nonpayable",
      "type": "function"
    }
  ],
  "bytecode": "0x60806040523480156200001157600080fd5b50336000806101000a81548173ffffffffffffffffffffffffffffffffffffffff021916908373ffffffffffffffffffffffffffffffffffffffff1602179055506200007c6020604051908101604052806000815250620000ae640100000000026401000000009004565b620000a860006020604051908101604052806000815250620001fe640100000000026401000000009004565b6200044b565b620000b862000374565b6000602060405190810160405280848152509150600160048390806001815401808255809150509060018203906000526020600020016000909192909190915060008201518160000190805190602001906200011692919062000388565b505050039050600160003373ffffffffffffffffffffffffffffffffffffffff1673ffffffffffffffffffffffffffffffffffffffff1681526020019081526020016000208190806001815401808255809150509060018203906000526020600020016000909192909190915055507f7694d63d2563aeac8aad2b0a111ef1ba09b12b9748ef4ae1010584d554b87fea81600033604051808481526020018381526020018273ffffffffffffffffffffffffffffffffffffffff1673ffffffffffffffffffffffffffffffffffffffff168152602001935050505060405180910390a1505050565b620002086200040f565b6000602060405190810160405280848152509150600160058390806001815401808255809150509060018203906000526020600020016000909192909190915060008201518160000190805190602001906200026692919062000388565b50505003905060026000858152602001908152602001600020819080600181540180825580915050906001820390600052602060002001600090919290919091505550336003600083815260200190815260200160002060006101000a81548173ffffffffffffffffffffffffffffffffffffffff021916908373ffffffffffffffffffffffffffffffffffffffff1602179055507f7694d63d2563aeac8aad2b0a111ef1ba09b12b9748ef4ae1010584d554b87fea848233604051808481526020018381526020018273ffffffffffffffffffffffffffffffffffffffff1673ffffffffffffffffffffffffffffffffffffffff168152602001935050505060405180910390a150505050565b602060405190810160405280606081525090565b828054600181600116156101000203166002900490600052602060002090601f016020900481019282601f10620003cb57805160ff1916838001178555620003fc565b82800160010185558215620003fc579182015b82811115620003fb578251825591602001919060010190620003de565b5b5090506200040b919062000423565b5090565b602060405190810160405280606081525090565b6200044891905b80821115620004445760008160009055506001016200042a565b5090565b90565b610d38806200045b6000396000f3006080604052600436106100af576000357c0100000000000000000000000000000000000000000000000000000000900463ffffffff16806309787a2c146100b45780630b1e7f831461012757806310fdf92a146101cd57806323bcaae91461023a5780635a9cfac8146102a3578063715018a6146102d25780638da5cb5b146102e95780638ebb4c1514610340578063acdc2cde146103e6578063cd65eabe14610447578063f2fde38b14610492575b600080fd5b3480156100c057600080fd5b5061012560048036038101908080359060200190929190803590602001908201803590602001908080601f01602080910402602001604051908101604052809392919081815260200183838082843782019150505050505091929192905050506104d5565b005b34801561013357600080fd5b5061015260048036038101908080359060200190929190505050610647565b6040518080602001828103825283818151815260200191508051906020019080838360005b83811015610192578082015181840152602081019050610177565b50505050905090810190601f1680156101bf5780820380516001836020036101000a031916815260200191505b509250505060405180910390f35b3480156101d957600080fd5b506101f860048036038101908080359060200190929190505050610708565b604051808273ffffffffffffffffffffffffffffffffffffffff1673ffffffffffffffffffffffffffffffffffffffff16815260200191505060405180910390f35b34801561024657600080fd5b506102a1600480360381019080803590602001908201803590602001908080601f016020809104026020016040519081016040528093929190818152602001838380828437820191505050505050919291929050505061073b565b005b3480156102af57600080fd5b506102b8610887565b604051808215151515815260200191505060405180910390f35b3480156102de57600080fd5b506102e7610896565b005b3480156102f557600080fd5b506102fe610998565b604051808273ffffffffffffffffffffffffffffffffffffffff1673ffffffffffffffffffffffffffffffffffffffff16815260200191505060405180910390f35b34801561034c57600080fd5b5061036b600480360381019080803590602001909291905050506109bd565b6040518080602001828103825283818151815260200191508051906020019080838360005b838110156103ab578082015181840152602081019050610390565b50505050905090810190601f1680156103d85780820380516001836020036101000a031916815260200191505b509250505060405180910390f35b3480156103f257600080fd5b50610431600480360381019080803573ffffffffffffffffffffffffffffffffffffffff16906020019092919080359060200190929190505050610a7e565b6040518082815260200191505060405180910390f35b34801561045357600080fd5b5061047c6004803603810190808035906020019092919080359060200190929190505050610aae565b6040518082815260200191505060405180910390f35b34801561049e57600080fd5b506104d3600480360381019080803573ffffffffffffffffffffffffffffffffffffffff169060200190929190505050610ade565b005b6104dd610c3f565b600060206040519081016040528084815250915060016005839080600181540180825580915050906001820390600052602060002001600090919290919091506000820151816000019080519060200190610539929190610c53565b50505003905060026000858152602001908152602001600020819080600181540180825580915050906001820390600052602060002001600090919290919091505550336003600083815260200190815260200160002060006101000a81548173ffffffffffffffffffffffffffffffffffffffff021916908373ffffffffffffffffffffffffffffffffffffffff1602179055507f7694d63d2563aeac8aad2b0a111ef1ba09b12b9748ef4ae1010584d554b87fea848233604051808481526020018381526020018273ffffffffffffffffffffffffffffffffffffffff1673ffffffffffffffffffffffffffffffffffffffff168152602001935050505060405180910390a150505050565b60048181548110151561065657fe5b90600052602060002001600091509050806000018054600181600116156101000203166002900480601f0160208091040260200160405190810160405280929190818152602001828054600181600116156101000203166002900480156106fe5780601f106106d3576101008083540402835291602001916106fe565b820191906000526020600020905b8154815290600101906020018083116106e157829003601f168201915b5050505050905081565b60036020528060005260406000206000915054906101000a900473ffffffffffffffffffffffffffffffffffffffff1681565b610743610cd3565b60006020604051908101604052808481525091506001600483908060018154018082558091505090600182039060005260206000200160009091929091909150600082015181600001908051906020019061079f929190610c53565b505050039050600160003373ffffffffffffffffffffffffffffffffffffffff1673ffffffffffffffffffffffffffffffffffffffff1681526020019081526020016000208190806001815401808255809150509060018203906000526020600020016000909192909190915055507f7694d63d2563aeac8aad2b0a111ef1ba09b12b9748ef4ae1010584d554b87fea81600033604051808481526020018381526020018273ffffffffffffffffffffffffffffffffffffffff1673ffffffffffffffffffffffffffffffffffffffff168152602001935050505060405180910390a1505050565b60008060048054905011905090565b6000809054906101000a900473ffffffffffffffffffffffffffffffffffffffff1673ffffffffffffffffffffffffffffffffffffffff163373ffffffffffffffffffffffffffffffffffffffff161415156108f157600080fd5b6000809054906101000a900473ffffffffffffffffffffffffffffffffffffffff1673ffffffffffffffffffffffffffffffffffffffff167ff8df31144d9c2f0f6b59d69b8b98abd5459d07f2742c4df920b25aae33c6482060405160405180910390a260008060006101000a81548173ffffffffffffffffffffffffffffffffffffffff021916908373ffffffffffffffffffffffffffffffffffffffff160217905550565b6000809054906101000a900473ffffffffffffffffffffffffffffffffffffffff1681565b6005818154811015156109cc57fe5b90600052602060002001600091509050806000018054600181600116156101000203166002900480601f016020809104026020016040519081016040528092919081815260200182805460018160011615610100020316600290048015610a745780601f10610a4957610100808354040283529160200191610a74565b820191906000526020600020905b815481529060010190602001808311610a5757829003601f168201915b5050505050905081565b600160205281600052604060002081815481101515610a9957fe5b90600052602060002001600091509150505481565b600260205281600052604060002081815481101515610ac957fe5b90600052602060002001600091509150505481565b6000809054906101000a900473ffffffffffffffffffffffffffffffffffffffff1673ffffffffffffffffffffffffffffffffffffffff163373ffffffffffffffffffffffffffffffffffffffff16141515610b3957600080fd5b610b4281610b45565b50565b600073ffffffffffffffffffffffffffffffffffffffff168173ffffffffffffffffffffffffffffffffffffffff1614151515610b8157600080fd5b8073ffffffffffffffffffffffffffffffffffffffff166000809054906101000a900473ffffffffffffffffffffffffffffffffffffffff1673ffffffffffffffffffffffffffffffffffffffff167f8be0079c531659141344cd1fd0a4f28419497f9722a3daafe3b4186f6b6457e060405160405180910390a3806000806101000a81548173ffffffffffffffffffffffffffffffffffffffff021916908373ffffffffffffffffffffffffffffffffffffffff16021790555050565b602060405190810160405280606081525090565b828054600181600116156101000203166002900490600052602060002090601f016020900481019282601f10610c9457805160ff1916838001178555610cc2565b82800160010185558215610cc2579182015b82811115610cc1578251825591602001919060010190610ca6565b5b509050610ccf9190610ce7565b5090565b602060405190810160405280606081525090565b610d0991905b80821115610d05576000816000905550600101610ced565b5090565b905600a165627a7a723058203ffbc96e34fe4fa0b61aaed0a751d148dc5f7442b32484fa2c1442379b020b3a0029",
  "source": "pragma solidity ^0.4.24;\r\n\r\nimport \"openzeppelin-solidity/contracts/math/SafeMath.sol\";\r\nimport \"openzeppelin-solidity/contracts/token/ERC20/ERC20.sol\";\r\nimport \"openzeppelin-solidity/contracts/ownership/Ownable.sol\";\r\n\r\ncontract ReCheck is Ownable {\r\n    using SafeMath for uint256;\r\n\r\n    struct Comment {\r\n        string text;\r\n    }\r\n\r\n    struct Post {\r\n        string text;\r\n    }\r\n\r\n    mapping (address => uint[]) public postsFromAccount;\r\n    mapping (uint => uint[]) public commentsFromPost;\r\n    mapping (uint => address) public commentFromAccount;\r\n\r\n    Post[] public posts;\r\n    Comment[] public comments;\r\n\r\n    event NewPostAdded(uint postId, uint commentId, address owner);\r\n\r\n    constructor () public {\r\n        // created the first post and comment with ID\r\n        // IDs 0 are invalid\r\n        newPost(\"\");\r\n        newComment(0, \"\");\r\n    }\r\n\r\n    function hasPosts() public view returns(bool _hasPosts) {\r\n        _hasPosts = posts.length > 0;\r\n    }\r\n\r\n    function newPost(string _text) public {\r\n        Post memory post = Post(_text);\r\n        uint postId = posts.push(post) - 1;\r\n        postsFromAccount[msg.sender].push(postId);\r\n        emit NewPostAdded(postId, 0, msg.sender);\r\n    }\r\n\r\n    function newComment(uint _postId, string _text) public {\r\n        Comment memory comment = Comment(_text);\r\n        uint commentId = comments.push(comment) - 1;\r\n        commentsFromPost[_postId].push(commentId);\r\n        commentFromAccount[commentId] = msg.sender;\r\n        emit NewPostAdded(_postId, commentId, msg.sender);\r\n    }\r\n}\r\n",
  "sourcePath": "/mnt/c/myproject/dapps/contracts/ReCheck.sol",
  "compiler": {
    "name": "solc",
    "version": "0.4.24+commit.e67f0147.Emscripten.clang"
  },
  "schemaVersion": "2.0.0",
  "updatedAt": "2018-09-03T06:58:30.205Z"
}