{
  "contractName": "SocialCreditBureau",
  "abi": [
    {
      "constant": false,
      "inputs": [],
      "name": "renounceOwnership",
      "outputs": [],
      "payable": false,
      "stateMutability": "nonpayable",
      "type": "function"
    },
    {
      "constant": true,
      "inputs": [
        {
          "name": "",
          "type": "address"
        },
        {
          "name": "",
          "type": "address"
        }
      ],
      "name": "unionLimits",
      "outputs": [
        {
          "name": "",
          "type": "uint256"
        }
      ],
      "payable": false,
      "stateMutability": "view",
      "type": "function"
    },
    {
      "constant": true,
      "inputs": [],
      "name": "owner",
      "outputs": [
        {
          "name": "",
          "type": "address"
        }
      ],
      "payable": false,
      "stateMutability": "view",
      "type": "function"
    },
    {
      "constant": true,
      "inputs": [
        {
          "name": "",
          "type": "uint256"
        }
      ],
      "name": "unions",
      "outputs": [
        {
          "name": "",
          "type": "address"
        }
      ],
      "payable": false,
      "stateMutability": "view",
      "type": "function"
    },
    {
      "constant": true,
      "inputs": [
        {
          "name": "",
          "type": "address"
        },
        {
          "name": "",
          "type": "address"
        }
      ],
      "name": "commitments",
      "outputs": [
        {
          "name": "",
          "type": "uint256"
        }
      ],
      "payable": false,
      "stateMutability": "view",
      "type": "function"
    },
    {
      "constant": true,
      "inputs": [
        {
          "name": "",
          "type": "address"
        },
        {
          "name": "",
          "type": "address"
        }
      ],
      "name": "balances",
      "outputs": [
        {
          "name": "",
          "type": "uint256"
        }
      ],
      "payable": false,
      "stateMutability": "view",
      "type": "function"
    },
    {
      "constant": true,
      "inputs": [
        {
          "name": "",
          "type": "uint256"
        }
      ],
      "name": "loans",
      "outputs": [
        {
          "name": "",
          "type": "address"
        }
      ],
      "payable": false,
      "stateMutability": "view",
      "type": "function"
    },
    {
      "constant": false,
      "inputs": [
        {
          "name": "_newOwner",
          "type": "address"
        }
      ],
      "name": "transferOwnership",
      "outputs": [],
      "payable": false,
      "stateMutability": "nonpayable",
      "type": "function"
    },
    {
      "constant": true,
      "inputs": [
        {
          "name": "",
          "type": "address"
        },
        {
          "name": "",
          "type": "address"
        }
      ],
      "name": "individualLimits",
      "outputs": [
        {
          "name": "",
          "type": "uint256"
        }
      ],
      "payable": false,
      "stateMutability": "view",
      "type": "function"
    },
    {
      "anonymous": false,
      "inputs": [
        {
          "indexed": true,
          "name": "previousOwner",
          "type": "address"
        }
      ],
      "name": "OwnershipRenounced",
      "type": "event"
    },
    {
      "anonymous": false,
      "inputs": [
        {
          "indexed": true,
          "name": "previousOwner",
          "type": "address"
        },
        {
          "indexed": true,
          "name": "newOwner",
          "type": "address"
        }
      ],
      "name": "OwnershipTransferred",
      "type": "event"
    }
  ],
  "bytecode": "0x60806040526000600160006101000a81548173ffffffffffffffffffffffffffffffffffffffff021916908373ffffffffffffffffffffffffffffffffffffffff160217905550336000806101000a81548173ffffffffffffffffffffffffffffffffffffffff021916908373ffffffffffffffffffffffffffffffffffffffff1602179055506107b3806100956000396000f300608060405260043610610099576000357c0100000000000000000000000000000000000000000000000000000000900463ffffffff168063715018a61461009e57806374402a72146100b55780638da5cb5b1461012c578063a20fe1c714610183578063adb6f63f146101f0578063c23f001f14610267578063e1ec3c68146102de578063f2fde38b1461034b578063feaca1ee1461038e575b600080fd5b3480156100aa57600080fd5b506100b3610405565b005b3480156100c157600080fd5b50610116600480360381019080803573ffffffffffffffffffffffffffffffffffffffff169060200190929190803573ffffffffffffffffffffffffffffffffffffffff169060200190929190505050610507565b6040518082815260200191505060405180910390f35b34801561013857600080fd5b5061014161052c565b604051808273ffffffffffffffffffffffffffffffffffffffff1673ffffffffffffffffffffffffffffffffffffffff16815260200191505060405180910390f35b34801561018f57600080fd5b506101ae60048036038101908080359060200190929190505050610551565b604051808273ffffffffffffffffffffffffffffffffffffffff1673ffffffffffffffffffffffffffffffffffffffff16815260200191505060405180910390f35b3480156101fc57600080fd5b50610251600480360381019080803573ffffffffffffffffffffffffffffffffffffffff169060200190929190803573ffffffffffffffffffffffffffffffffffffffff169060200190929190505050610584565b6040518082815260200191505060405180910390f35b34801561027357600080fd5b506102c8600480360381019080803573ffffffffffffffffffffffffffffffffffffffff169060200190929190803573ffffffffffffffffffffffffffffffffffffffff1690602001909291905050506105a9565b6040518082815260200191505060405180910390f35b3480156102ea57600080fd5b50610309600480360381019080803590602001909291905050506105ce565b604051808273ffffffffffffffffffffffffffffffffffffffff1673ffffffffffffffffffffffffffffffffffffffff16815260200191505060405180910390f35b34801561035757600080fd5b5061038c600480360381019080803573ffffffffffffffffffffffffffffffffffffffff169060200190929190505050610601565b005b34801561039a57600080fd5b506103ef600480360381019080803573ffffffffffffffffffffffffffffffffffffffff169060200190929190803573ffffffffffffffffffffffffffffffffffffffff169060200190929190505050610668565b6040518082815260200191505060405180910390f35b6000809054906101000a900473ffffffffffffffffffffffffffffffffffffffff1673ffffffffffffffffffffffffffffffffffffffff163373ffffffffffffffffffffffffffffffffffffffff1614151561046057600080fd5b6000809054906101000a900473ffffffffffffffffffffffffffffffffffffffff1673ffffffffffffffffffffffffffffffffffffffff167ff8df31144d9c2f0f6b59d69b8b98abd5459d07f2742c4df920b25aae33c6482060405160405180910390a260008060006101000a81548173ffffffffffffffffffffffffffffffffffffffff021916908373ffffffffffffffffffffffffffffffffffffffff160217905550565b6005602052816000526040600020602052806000526040600020600091509150505481565b6000809054906101000a900473ffffffffffffffffffffffffffffffffffffffff1681565b60086020528060005260406000206000915054906101000a900473ffffffffffffffffffffffffffffffffffffffff1681565b6003602052816000526040600020602052806000526040600020600091509150505481565b6002602052816000526040600020602052806000526040600020600091509150505481565b60096020528060005260406000206000915054906101000a900473ffffffffffffffffffffffffffffffffffffffff1681565b6000809054906101000a900473ffffffffffffffffffffffffffffffffffffffff1673ffffffffffffffffffffffffffffffffffffffff163373ffffffffffffffffffffffffffffffffffffffff1614151561065c57600080fd5b6106658161068d565b50565b6004602052816000526040600020602052806000526040600020600091509150505481565b600073ffffffffffffffffffffffffffffffffffffffff168173ffffffffffffffffffffffffffffffffffffffff16141515156106c957600080fd5b8073ffffffffffffffffffffffffffffffffffffffff166000809054906101000a900473ffffffffffffffffffffffffffffffffffffffff1673ffffffffffffffffffffffffffffffffffffffff167f8be0079c531659141344cd1fd0a4f28419497f9722a3daafe3b4186f6b6457e060405160405180910390a3806000806101000a81548173ffffffffffffffffffffffffffffffffffffffff021916908373ffffffffffffffffffffffffffffffffffffffff160217905550505600a165627a7a7230582052ab6b6789ed8b7910c1a5cacb5d2e001bbdca5bdf6399c5ff95eb661e8838080029",
  "source": "pragma solidity ^0.4.24;\r\n\r\nimport \"openzeppelin-solidity/contracts/math/SafeMath.sol\";\r\nimport \"openzeppelin-solidity/contracts/token/ERC20/ERC20.sol\";\r\nimport \"openzeppelin-solidity/contracts/ownership/Ownable.sol\";\r\nimport \"./CreditLineFactory.sol\";\r\n\r\ncontract SocialCreditBureau is CreditLineFactory, Ownable {\r\n    address private etherAddress = 0x0;\r\n\r\n    // creditor => token => balance\r\n    mapping(address => mapping(address => uint256)) public balances;\r\n    mapping(address => mapping(address => uint256)) public commitments;\r\n\r\n    mapping(address => mapping(address => uint256)) public individualLimits;\r\n    mapping(address => mapping(address => uint256)) public unionLimits;\r\n\r\n\r\n    enum Status {NotExists, Created, Pending, Active, Done, Declined}\r\n    enum KycLevel {Undefined, Tier1, Tier2, Tier3, Tier4, Tier5}\r\n\r\n    struct Profile {\r\n        Status status;\r\n        KycLevel kycLevel;\r\n    }\r\n    // borrower id => borrower\r\n    mapping (uint256 => address) borrowers;\r\n    mapping (uint256 => address) investors;\r\n\r\n    // loan id => loan\r\n    mapping (uint256 => address) public unions;\r\n    mapping (uint256 => address) public loans;\r\n\r\n\r\n    mapping (address => Profile) profiles;\r\n}\r\n\r\n//pragma solidity ^0.4.25;\r\n//\r\n//import \"openzeppelin-solidity/contracts/math/SafeMath.sol\";\r\n//import \"openzeppelin-solidity/contracts/token/ERC20/ERC20.sol\";\r\n//import \"./SocialCreditUnion.sol\";\r\n//\r\n//contract SocialCreditBureau {\r\n//    using SafeMath for uint256;\r\n//    struct CreditLine {\r\n//        address creditor;\r\n//        uint256 individualLimit;\r\n//        uint256 unionLimit;\r\n//    }\r\n//\r\n//    enum Status {NotExists, Created, Pending, Active, Done, Declined}\r\n//    enum KycLevel {Undefined, Tier1, Tier2, Tier3, Tier4, Tier5}\r\n//\r\n//    struct Profile {\r\n//        Status status;\r\n//        KycLevel kycLevel;\r\n//    }\r\n//\r\n//\r\n//    // union id => union\r\n//\r\n//    // borrower id => borrower\r\n//    mapping (uint256 => address) borrowers;\r\n//    mapping (uint256 => address) investors;\r\n//\r\n//    // loan id => loan\r\n//    mapping (uint256 => address) public unions;\r\n//    mapping (uint256 => address) public loans;\r\n//\r\n//\r\n//    mapping (address => Profile) profiles;\r\n//\r\n//    address private admin;\r\n//    address private etherAddress = 0x0;\r\n//    // creditor => token => balance\r\n//    mapping(address => mapping(address => uint256)) public balances;\r\n//    mapping(address => mapping(address => uint256)) public commitments;\r\n//\r\n//\r\n//\r\n//    mapping(address => mapping(address => uint256)) public individualLimits;\r\n//    mapping(address => mapping(address => uint256)) public unionLimits;\r\n//\r\n//\r\n//\r\n//    HoQuConfig public config;\r\n//\r\n//    mapping (bytes16 => User) public users;\r\n//    mapping (bytes16 => Identification) public ids;\r\n//    mapping (bytes16 => Stats) public stats;\r\n//    mapping (bytes16 => Company) public companies;\r\n//    mapping (bytes16 => Network) public networks;\r\n//    mapping (bytes16 => Offer) public offers;\r\n//    mapping (bytes16 => Tracker) public trackers;\r\n//    mapping (bytes16 => AdCampaign) public adCampaigns;\r\n//\r\n//    event UserRegistered(address indexed ownerAddress, bytes16 id, string role);\r\n//    event UserAddressAdded(address indexed ownerAddress, address additionalAddress);\r\n//    event StatsChanged(address indexed ownerAddress, bytes16 id, uint256 rating);\r\n//    event IdentificationAdded(address indexed ownerAddress, bytes16 id, string name);\r\n//    event KycReportAdded(address indexed ownerAddress, KycLevel kycLevel);\r\n//    event CompanyRegistered(address indexed ownerAddress, bytes16 id, string name);\r\n//    event NetworkRegistered(address indexed ownerAddress, bytes16 id, string name);\r\n//    event TrackerRegistered(address indexed ownerAddress, bytes16 id, string name);\r\n//    event OfferAdded(address indexed ownerAddress, bytes16 id, string name);\r\n//    event AdCampaignAdded(address indexed ownerAddress, bytes16 id, address contractAddress);\r\n//\r\n//    modifier onlyOwner() {\r\n//        require(config.isAllowed(msg.sender));\r\n//        _;\r\n//    }\r\n//\r\n//    constructor(address configAddress) public {\r\n//        config = HoQuConfig(configAddress);\r\n//    }\r\n//\r\n//    function setConfigAddress(address configAddress) public onlyOwner {\r\n//        config = HoQuConfig(configAddress);\r\n//    }\r\n//\r\n//    function setUser(bytes16 id, string role, address ownerAddress, KycLevel kycLevel, string pubKey, Status status) public onlyOwner {\r\n//        if (users[id].status == Status.NotExists) {\r\n//            users[id] = User({\r\n//                createdAt : now,\r\n//                numOfAddresses : 1,\r\n//                role : role,\r\n//                kycLevel : KycLevel.Tier1,\r\n//                pubKey : pubKey,\r\n//                status : Status.Created\r\n//            });\r\n//            users[id].addresses[0] = ownerAddress;\r\n//\r\n//            emit UserRegistered(ownerAddress, id, role);\r\n//        } else {\r\n//            if (bytes(role).length != 0) {\r\n//                users[id].role = role;\r\n//            }\r\n//            if (kycLevel != KycLevel.Undefined) {\r\n//                users[id].kycLevel = kycLevel;\r\n//            }\r\n//            if (bytes(pubKey).length != 0) {\r\n//                users[id].pubKey = pubKey;\r\n//            }\r\n//            if (status != Status.NotExists) {\r\n//                users[id].status = status;\r\n//            }\r\n//        }\r\n//    }\r\n//\r\n//    function addUserAddress(bytes16 id, address ownerAddress) public onlyOwner {\r\n//        require(users[id].status != Status.NotExists);\r\n//\r\n//        users[id].addresses[users[id].numOfAddresses] = ownerAddress;\r\n//        users[id].numOfAddresses++;\r\n//\r\n//        emit UserAddressAdded(users[id].addresses[0], ownerAddress);\r\n//    }\r\n//\r\n//    function getUserAddress(bytes16 id, uint8 num) public constant returns (address) {\r\n//        require(users[id].status != Status.NotExists);\r\n//\r\n//        return users[id].addresses[num];\r\n//    }\r\n//\r\n//    function setIdentification(bytes16 id, bytes16 userId, string idType, string name, bytes16 companyId, Status status) public onlyOwner {\r\n//        if (ids[id].status == Status.NotExists) {\r\n//            address ownerAddress = getUserAddress(userId, 0);\r\n//\r\n//            ids[id] = Identification({\r\n//                createdAt : now,\r\n//                userId : userId,\r\n//                idType : idType,\r\n//                name: name,\r\n//                companyId : companyId,\r\n//                numOfKycReports : 0,\r\n//                status : Status.Created\r\n//            });\r\n//\r\n//            emit IdentificationAdded(ownerAddress, id, name);\r\n//        } else {\r\n//            if (bytes(idType).length != 0) {\r\n//                ids[id].idType = idType;\r\n//            }\r\n//            if (companyId.length != 0) {\r\n//                ids[id].companyId = companyId;\r\n//            }\r\n//            if (status != Status.NotExists) {\r\n//                ids[id].status = status;\r\n//            }\r\n//        }\r\n//    }\r\n//\r\n//    function setStats(bytes16 id, bytes16 userId, uint256 rating, uint256 volume, uint256 contragents, uint256 stat1, uint256 stat2, Status status) public onlyOwner {\r\n//        if (stats[id].status == Status.NotExists) {\r\n//            address ownerAddress = userId.length > 0 ? getUserAddress(userId, 0) : address(0);\r\n//\r\n//            stats[id] = Stats({\r\n//                rating : rating,\r\n//                volume : volume,\r\n//                contragents : contragents,\r\n//                stat1 : stat1,\r\n//                stat2 : stat2,\r\n//                status : Status.Created\r\n//            });\r\n//            if (userId.length > 0) {\r\n//                stats[userId] = stats[id];\r\n//            }\r\n//\r\n//            emit StatsChanged(ownerAddress, id, rating);\r\n//        } else {\r\n//            if (rating != 0) {\r\n//                stats[id].rating = rating;\r\n//                if (userId.length > 0) {\r\n//                    stats[userId].rating = rating;\r\n//                }\r\n//            }\r\n//            if (volume != 0) {\r\n//                stats[id].volume = volume;\r\n//                if (userId.length > 0) {\r\n//                    stats[userId].volume = volume;\r\n//                }\r\n//            }\r\n//            if (contragents != 0) {\r\n//                stats[id].contragents = contragents;\r\n//                if (userId.length > 0) {\r\n//                    stats[userId].contragents = contragents;\r\n//                }\r\n//            }\r\n//            if (stat1 != 0) {\r\n//                stats[id].stat1 = stat1;\r\n//                if (userId.length > 0) {\r\n//                    stats[userId].stat1 = stat1;\r\n//                }\r\n//            }\r\n//            if (stat2 != 0) {\r\n//                stats[id].stat2 = stat2;\r\n//                if (userId.length > 0) {\r\n//                    stats[userId].stat2 = stat2;\r\n//                }\r\n//            }\r\n//            if (status != Status.NotExists) {\r\n//                stats[id].status = status;\r\n//            }\r\n//        }\r\n//    }\r\n//\r\n//    function addKycReport(bytes16 id, string meta, KycLevel kycLevel, string dataUrl) public onlyOwner {\r\n//        require(ids[id].status != Status.NotExists);\r\n//\r\n//        ids[id].kycReports[ids[id].numOfKycReports] = KycReport({\r\n//            createdAt : now,\r\n//            meta : meta,\r\n//            kycLevel : kycLevel,\r\n//            dataUrl : dataUrl\r\n//        });\r\n//        ids[id].numOfKycReports++;\r\n//\r\n//        emit KycReportAdded(users[ids[id].userId].addresses[0], kycLevel);\r\n//    }\r\n//\r\n//    function getKycReport(bytes16 id, uint16 num) public constant returns (uint, string, KycLevel, string) {\r\n//        require(ids[id].status != Status.NotExists);\r\n//\r\n//        return (\r\n//            ids[id].kycReports[num].createdAt,\r\n//            ids[id].kycReports[num].meta,\r\n//            ids[id].kycReports[num].kycLevel,\r\n//            ids[id].kycReports[num].dataUrl\r\n//        );\r\n//    }\r\n//\r\n//    function setCompany(bytes16 id, bytes16 ownerId, string name, string dataUrl, Status status) public onlyOwner {\r\n//        if (companies[id].status == Status.NotExists) {\r\n//            require(users[ownerId].status != Status.NotExists);\r\n//            require(users[ownerId].addresses[0] != address(0));\r\n//\r\n//            companies[id] = Company({\r\n//                createdAt : now,\r\n//                ownerId : ownerId,\r\n//                name : name,\r\n//                dataUrl : dataUrl,\r\n//                status : Status.Created\r\n//            });\r\n//\r\n//            emit CompanyRegistered(users[ownerId].addresses[0], id, name);\r\n//        } else {\r\n//            if (bytes(name).length != 0) {\r\n//                companies[id].name = name;\r\n//            }\r\n//            if (bytes(dataUrl).length != 0) {\r\n//                companies[id].dataUrl = dataUrl;\r\n//            }\r\n//            if (status != Status.NotExists) {\r\n//                companies[id].status = status;\r\n//            }\r\n//        }\r\n//    }\r\n//\r\n//    function setNetwork(bytes16 id, bytes16 ownerId, string name, string dataUrl, Status status) public onlyOwner {\r\n//        if (networks[id].status == Status.NotExists) {\r\n//            require(users[ownerId].status != Status.NotExists);\r\n//            require(users[ownerId].addresses[0] != address(0));\r\n//\r\n//            networks[id] = Network({\r\n//                createdAt : now,\r\n//                ownerId : ownerId,\r\n//                name : name,\r\n//                dataUrl : dataUrl,\r\n//                status : Status.Created\r\n//            });\r\n//\r\n//            emit NetworkRegistered(users[ownerId].addresses[0], id, name);\r\n//        } else {\r\n//            if (bytes(name).length != 0) {\r\n//                networks[id].name = name;\r\n//            }\r\n//            if (bytes(dataUrl).length != 0) {\r\n//                networks[id].dataUrl = dataUrl;\r\n//            }\r\n//            if (status != Status.NotExists) {\r\n//                networks[id].status = status;\r\n//            }\r\n//        }\r\n//    }\r\n//\r\n//    function setTracker(bytes16 id, bytes16 ownerId, bytes16 networkId, string name, string dataUrl, Status status) public onlyOwner {\r\n//        if (networkId.length != 0) {\r\n//            require(networks[networkId].status != Status.NotExists);\r\n//        }\r\n//\r\n//        if (trackers[id].status == Status.NotExists) {\r\n//            require(users[ownerId].status != Status.NotExists);\r\n//            require(users[ownerId].addresses[0] != address(0));\r\n//\r\n//            trackers[id] = Tracker({\r\n//                createdAt : now,\r\n//                ownerId : ownerId,\r\n//                networkId : networkId,\r\n//                name : name,\r\n//                dataUrl : dataUrl,\r\n//                status : Status.Created\r\n//            });\r\n//\r\n//            emit TrackerRegistered(users[ownerId].addresses[0], id, name);\r\n//        } else {\r\n//            if (networkId.length != 0) {\r\n//                trackers[id].networkId = networkId;\r\n//            }\r\n//            if (bytes(name).length != 0) {\r\n//                trackers[id].name = name;\r\n//            }\r\n//            if (bytes(dataUrl).length != 0) {\r\n//                trackers[id].dataUrl = dataUrl;\r\n//            }\r\n//            if (status != Status.NotExists) {\r\n//                trackers[id].status = status;\r\n//            }\r\n//        }\r\n//    }\r\n//\r\n//    function setOffer(bytes16 id, bytes16 ownerId, bytes16 networkId, bytes16 merchantId, address payerAddress, string name, string dataUrl, uint256 cost, Status status) public onlyOwner {\r\n//        if (networkId.length != 0) {\r\n//            require(networks[networkId].status != Status.NotExists);\r\n//        }\r\n//        if (merchantId.length != 0) {\r\n//            require(users[merchantId].status != Status.NotExists);\r\n//        }\r\n//\r\n//        if (trackers[id].status == Status.NotExists) {\r\n//            require(users[ownerId].status != Status.NotExists);\r\n//            require(users[ownerId].addresses[0] != address(0));\r\n//\r\n//            offers[id] = Offer({\r\n//                createdAt : now,\r\n//                networkId : networkId,\r\n//                merchantId: merchantId,\r\n//                ownerId : ownerId,\r\n//                payerAddress : payerAddress,\r\n//                name : name,\r\n//                dataUrl : dataUrl,\r\n//                cost : cost,\r\n//                status : Status.Created\r\n//            });\r\n//\r\n//            emit OfferAdded(payerAddress, id, name);\r\n//        } else {\r\n//            if (networkId.length != 0) {\r\n//                offers[id].networkId = networkId;\r\n//            }\r\n//            if (merchantId.length != 0) {\r\n//                offers[id].merchantId = merchantId;\r\n//            }\r\n//            if (payerAddress != address(0)) {\r\n//                offers[id].payerAddress = payerAddress;\r\n//            }\r\n//            if (bytes(name).length != 0) {\r\n//                offers[id].name = name;\r\n//            }\r\n//            if (bytes(dataUrl).length != 0) {\r\n//                offers[id].dataUrl = dataUrl;\r\n//            }\r\n//            if (cost != 0) {\r\n//                offers[id].cost = cost;\r\n//            }\r\n//            if (status != Status.NotExists) {\r\n//                offers[id].status = status;\r\n//            }\r\n//        }\r\n//    }\r\n//\r\n//    function setAdCampaign(bytes16 id, bytes16 ownerId, bytes16 offerId, address contractAddress, Status status) public onlyOwner {\r\n//        if (trackers[id].status == Status.NotExists) {\r\n//            require(users[ownerId].status != Status.NotExists);\r\n//            require(users[ownerId].addresses[0] != address(0));\r\n//            require(offers[offerId].status != Status.NotExists);\r\n//\r\n//            address ownerAddress = getUserAddress(ownerId, 0);\r\n//\r\n//            adCampaigns[id] = AdCampaign({\r\n//                createdAt : now,\r\n//                offerId : offerId,\r\n//                ownerId : ownerId,\r\n//                contractAddress : contractAddress,\r\n//                status : Status.Created\r\n//            });\r\n//\r\n//            emit AdCampaignAdded(ownerAddress, id, contractAddress);\r\n//        } else {\r\n//            if (contractAddress != address(0)) {\r\n//                adCampaigns[id].contractAddress = contractAddress;\r\n//            }\r\n//            if (status != Status.NotExists) {\r\n//                adCampaigns[id].status = status;\r\n//            }\r\n//        }\r\n//    }\r\n",
  "sourcePath": "/mnt/c/myproject/dapps/contracts/SocialCreditBureau.sol",
  "compiler": {
    "name": "solc",
    "version": "0.4.24+commit.e67f0147.Emscripten.clang"
  },
  "schemaVersion": "2.0.0",
  "updatedAt": "2018-09-03T06:58:30.218Z"
}