{
  "contractName": "TestRegistry",
  "abi": [
    {
      "constant": true,
      "inputs": [
        {
          "name": "",
          "type": "address"
        }
      ],
      "name": "registry",
      "outputs": [
        {
          "name": "",
          "type": "uint256"
        }
      ],
      "payable": false,
      "stateMutability": "view",
      "type": "function"
    },
    {
      "constant": true,
      "inputs": [
        {
          "name": "",
          "type": "address"
        }
      ],
      "name": "strRegistry",
      "outputs": [
        {
          "name": "",
          "type": "string"
        }
      ],
      "payable": false,
      "stateMutability": "view",
      "type": "function"
    },
    {
      "constant": false,
      "inputs": [
        {
          "name": "x",
          "type": "uint256"
        }
      ],
      "name": "register",
      "outputs": [],
      "payable": false,
      "stateMutability": "nonpayable",
      "type": "function"
    },
    {
      "constant": false,
      "inputs": [
        {
          "name": "with",
          "type": "uint256"
        },
        {
          "name": "many",
          "type": "address"
        },
        {
          "name": "strange",
          "type": "string"
        },
        {
          "name": "params",
          "type": "uint256"
        }
      ],
      "name": "reallyLongFunctionName",
      "outputs": [],
      "payable": false,
      "stateMutability": "nonpayable",
      "type": "function"
    },
    {
      "constant": false,
      "inputs": [],
      "name": "testThrow",
      "outputs": [],
      "payable": false,
      "stateMutability": "nonpayable",
      "type": "function"
    }
  ],
  "bytecode": "0x608060405234801561001057600080fd5b5061052a806100206000396000f30060806040526004361061006d576000357c0100000000000000000000000000000000000000000000000000000000900463ffffffff168063038defd7146100725780630da9a424146100c957806350bff6bf14610166578063e4d6a92d1461017d578063f207564e14610239575b600080fd5b34801561007e57600080fd5b506100b3600480360381019080803573ffffffffffffffffffffffffffffffffffffffff169060200190929190505050610266565b6040518082815260200191505060405180910390f35b3480156100d557600080fd5b5061016460048036038101908080359060200190929190803573ffffffffffffffffffffffffffffffffffffffff169060200190929190803590602001908201803590602001908080601f01602080910402602001604051908101604052809392919081815260200183838082843782019150505050505091929192908035906020019092919050505061027e565b005b34801561017257600080fd5b5061017b61035e565b005b34801561018957600080fd5b506101be600480360381019080803573ffffffffffffffffffffffffffffffffffffffff169060200190929190505050610363565b6040518080602001828103825283818151815260200191508051906020019080838360005b838110156101fe5780820151818401526020810190506101e3565b50505050905090810190601f16801561022b5780820380516001836020036101000a031916815260200191505b509250505060405180910390f35b34801561024557600080fd5b5061026460048036038101908080359060200190929190505050610413565b005b60006020528060005260406000206000915090505481565b81600160008573ffffffffffffffffffffffffffffffffffffffff1673ffffffffffffffffffffffffffffffffffffffff16815260200190815260200160002090805190602001906102d1929190610459565b50836000808573ffffffffffffffffffffffffffffffffffffffff1673ffffffffffffffffffffffffffffffffffffffff16815260200190815260200160002081905550806000808573ffffffffffffffffffffffffffffffffffffffff1673ffffffffffffffffffffffffffffffffffffffff1681526020019081526020016000208190555050505050565b600080fd5b60016020528060005260406000206000915090508054600181600116156101000203166002900480601f01602080910402602001604051908101604052809291908181526020018280546001816001161561010002031660029004801561040b5780601f106103e05761010080835404028352916020019161040b565b820191906000526020600020905b8154815290600101906020018083116103ee57829003601f168201915b505050505081565b806000803373ffffffffffffffffffffffffffffffffffffffff1673ffffffffffffffffffffffffffffffffffffffff1681526020019081526020016000208190555050565b828054600181600116156101000203166002900490600052602060002090601f016020900481019282601f1061049a57805160ff19168380011785556104c8565b828001600101855582156104c8579182015b828111156104c75782518255916020019190600101906104ac565b5b5090506104d591906104d9565b5090565b6104fb91905b808211156104f75760008160009055506001016104df565b5090565b905600a165627a7a72305820ce186407ff37b9a2179e669c612ab3a6b21648ecd8812466e3d6be1e83367a520029",
  "source": "// This contract is only used for testing purposes.\r\npragma solidity 0.4.24;\r\n\r\n\r\ncontract TestRegistry {\r\n\r\n    mapping(address => uint) public registry;\r\n    mapping(address => string) public strRegistry;\r\n\r\n    function register(uint x) {\r\n        registry[msg.sender] = x;\r\n    }\r\n\r\n    function reallyLongFunctionName(\r\n        uint with,\r\n        address many,\r\n        string strange,\r\n        uint params\r\n    ) {\r\n        strRegistry[many] = strange;\r\n        registry[many] = with;\r\n        registry[many] = params;\r\n    }\r\n\r\n    function testThrow() {\r\n        revert();\r\n    }\r\n}\r\n",
  "sourcePath": "/mnt/c/myproject/dapps/contracts/uport-identity/misc/TestRegistry.sol",
  "compiler": {
    "name": "solc",
    "version": "0.4.24+commit.e67f0147.Emscripten.clang"
  },
  "schemaVersion": "2.0.0",
  "updatedAt": "2018-09-03T06:58:30.213Z"
}