{
  "contractName": "IdentityManager",
  "abi": [
    {
      "constant": true,
      "inputs": [
        {
          "name": "",
          "type": "address"
        }
      ],
      "name": "migrationNewAddress",
      "outputs": [
        {
          "name": "",
          "type": "address"
        }
      ],
      "payable": false,
      "stateMutability": "view",
      "type": "function"
    },
    {
      "constant": true,
      "inputs": [
        {
          "name": "",
          "type": "address"
        }
      ],
      "name": "migrationInitiated",
      "outputs": [
        {
          "name": "",
          "type": "uint256"
        }
      ],
      "payable": false,
      "stateMutability": "view",
      "type": "function"
    },
    {
      "inputs": [
        {
          "name": "_userTimeLock",
          "type": "uint256"
        },
        {
          "name": "_adminTimeLock",
          "type": "uint256"
        },
        {
          "name": "_adminRate",
          "type": "uint256"
        }
      ],
      "payable": false,
      "stateMutability": "nonpayable",
      "type": "constructor"
    },
    {
      "anonymous": false,
      "inputs": [
        {
          "indexed": true,
          "name": "identity",
          "type": "address"
        },
        {
          "indexed": true,
          "name": "creator",
          "type": "address"
        },
        {
          "indexed": false,
          "name": "owner",
          "type": "address"
        },
        {
          "indexed": true,
          "name": "recoveryKey",
          "type": "address"
        }
      ],
      "name": "LogIdentityCreated",
      "type": "event"
    },
    {
      "anonymous": false,
      "inputs": [
        {
          "indexed": true,
          "name": "identity",
          "type": "address"
        },
        {
          "indexed": true,
          "name": "owner",
          "type": "address"
        },
        {
          "indexed": false,
          "name": "instigator",
          "type": "address"
        }
      ],
      "name": "LogOwnerAdded",
      "type": "event"
    },
    {
      "anonymous": false,
      "inputs": [
        {
          "indexed": true,
          "name": "identity",
          "type": "address"
        },
        {
          "indexed": true,
          "name": "owner",
          "type": "address"
        },
        {
          "indexed": false,
          "name": "instigator",
          "type": "address"
        }
      ],
      "name": "LogOwnerRemoved",
      "type": "event"
    },
    {
      "anonymous": false,
      "inputs": [
        {
          "indexed": true,
          "name": "identity",
          "type": "address"
        },
        {
          "indexed": true,
          "name": "recoveryKey",
          "type": "address"
        },
        {
          "indexed": false,
          "name": "instigator",
          "type": "address"
        }
      ],
      "name": "LogRecoveryChanged",
      "type": "event"
    },
    {
      "anonymous": false,
      "inputs": [
        {
          "indexed": true,
          "name": "identity",
          "type": "address"
        },
        {
          "indexed": true,
          "name": "newIdManager",
          "type": "address"
        },
        {
          "indexed": false,
          "name": "instigator",
          "type": "address"
        }
      ],
      "name": "LogMigrationInitiated",
      "type": "event"
    },
    {
      "anonymous": false,
      "inputs": [
        {
          "indexed": true,
          "name": "identity",
          "type": "address"
        },
        {
          "indexed": true,
          "name": "newIdManager",
          "type": "address"
        },
        {
          "indexed": false,
          "name": "instigator",
          "type": "address"
        }
      ],
      "name": "LogMigrationCanceled",
      "type": "event"
    },
    {
      "anonymous": false,
      "inputs": [
        {
          "indexed": true,
          "name": "identity",
          "type": "address"
        },
        {
          "indexed": true,
          "name": "newIdManager",
          "type": "address"
        },
        {
          "indexed": false,
          "name": "instigator",
          "type": "address"
        }
      ],
      "name": "LogMigrationFinalized",
      "type": "event"
    },
    {
      "constant": false,
      "inputs": [
        {
          "name": "owner",
          "type": "address"
        },
        {
          "name": "recoveryKey",
          "type": "address"
        }
      ],
      "name": "createIdentity",
      "outputs": [],
      "payable": false,
      "stateMutability": "nonpayable",
      "type": "function"
    },
    {
      "constant": false,
      "inputs": [
        {
          "name": "owner",
          "type": "address"
        },
        {
          "name": "recoveryKey",
          "type": "address"
        },
        {
          "name": "destination",
          "type": "address"
        },
        {
          "name": "data",
          "type": "bytes"
        }
      ],
      "name": "createIdentityWithCall",
      "outputs": [],
      "payable": false,
      "stateMutability": "nonpayable",
      "type": "function"
    },
    {
      "constant": false,
      "inputs": [
        {
          "name": "owner",
          "type": "address"
        },
        {
          "name": "recoveryKey",
          "type": "address"
        }
      ],
      "name": "registerIdentity",
      "outputs": [],
      "payable": false,
      "stateMutability": "nonpayable",
      "type": "function"
    },
    {
      "constant": false,
      "inputs": [
        {
          "name": "identity",
          "type": "address"
        },
        {
          "name": "destination",
          "type": "address"
        },
        {
          "name": "value",
          "type": "uint256"
        },
        {
          "name": "data",
          "type": "bytes"
        }
      ],
      "name": "forwardTo",
      "outputs": [],
      "payable": false,
      "stateMutability": "nonpayable",
      "type": "function"
    },
    {
      "constant": false,
      "inputs": [
        {
          "name": "identity",
          "type": "address"
        },
        {
          "name": "newOwner",
          "type": "address"
        }
      ],
      "name": "addOwner",
      "outputs": [],
      "payable": false,
      "stateMutability": "nonpayable",
      "type": "function"
    },
    {
      "constant": false,
      "inputs": [
        {
          "name": "identity",
          "type": "address"
        },
        {
          "name": "newOwner",
          "type": "address"
        }
      ],
      "name": "addOwnerFromRecovery",
      "outputs": [],
      "payable": false,
      "stateMutability": "nonpayable",
      "type": "function"
    },
    {
      "constant": false,
      "inputs": [
        {
          "name": "identity",
          "type": "address"
        },
        {
          "name": "owner",
          "type": "address"
        }
      ],
      "name": "removeOwner",
      "outputs": [],
      "payable": false,
      "stateMutability": "nonpayable",
      "type": "function"
    },
    {
      "constant": false,
      "inputs": [
        {
          "name": "identity",
          "type": "address"
        },
        {
          "name": "recoveryKey",
          "type": "address"
        }
      ],
      "name": "changeRecovery",
      "outputs": [],
      "payable": false,
      "stateMutability": "nonpayable",
      "type": "function"
    },
    {
      "constant": false,
      "inputs": [
        {
          "name": "identity",
          "type": "address"
        },
        {
          "name": "newIdManager",
          "type": "address"
        }
      ],
      "name": "initiateMigration",
      "outputs": [],
      "payable": false,
      "stateMutability": "nonpayable",
      "type": "function"
    },
    {
      "constant": false,
      "inputs": [
        {
          "name": "identity",
          "type": "address"
        }
      ],
      "name": "cancelMigration",
      "outputs": [],
      "payable": false,
      "stateMutability": "nonpayable",
      "type": "function"
    },
    {
      "constant": false,
      "inputs": [
        {
          "name": "identity",
          "type": "address"
        }
      ],
      "name": "finalizeMigration",
      "outputs": [],
      "payable": false,
      "stateMutability": "nonpayable",
      "type": "function"
    },
    {
      "constant": true,
      "inputs": [
        {
          "name": "identity",
          "type": "address"
        },
        {
          "name": "owner",
          "type": "address"
        }
      ],
      "name": "isOwner",
      "outputs": [
        {
          "name": "",
          "type": "bool"
        }
      ],
      "payable": false,
      "stateMutability": "view",
      "type": "function"
    },
    {
      "constant": true,
      "inputs": [
        {
          "name": "identity",
          "type": "address"
        },
        {
          "name": "owner",
          "type": "address"
        }
      ],
      "name": "isOlderOwner",
      "outputs": [
        {
          "name": "",
          "type": "bool"
        }
      ],
      "payable": false,
      "stateMutability": "view",
      "type": "function"
    },
    {
      "constant": true,
      "inputs": [
        {
          "name": "identity",
          "type": "address"
        },
        {
          "name": "recoveryKey",
          "type": "address"
        }
      ],
      "name": "isRecovery",
      "outputs": [
        {
          "name": "",
          "type": "bool"
        }
      ],
      "payable": false,
      "stateMutability": "view",
      "type": "function"
    }
  ],
  "bytecode": "0x608060405234801561001057600080fd5b50604051606080612af183398101806040528101908080519060200190929190805190602001909291908051906020019092919050505082821015151561005657600080fd5b816000819055508260018190555080600281905550505050612a748061007d6000396000f3006080604052600436106100e6576000357c0100000000000000000000000000000000000000000000000000000000900463ffffffff16806311fe12b3146100eb57806316d390bf1461016657806332967ea0146101c95780633c8ac88e146102445780633dcf59ca1461030d578063422e33f3146103705780635143eea2146103f357806353faa9a914610456578063633b1954146104b95780636f022ac4146104fc57806373b40a5c1461053f578063781f5a83146105f25780637ddc02d414610655578063c778427b146106d0578063d10e73ab14610727578063fbe5ce0a1461078a575b600080fd5b3480156100f757600080fd5b5061014c600480360381019080803573ffffffffffffffffffffffffffffffffffffffff169060200190929190803573ffffffffffffffffffffffffffffffffffffffff1690602001909291905050506107ed565b604051808215151515815260200191505060405180910390f35b34801561017257600080fd5b506101c7600480360381019080803573ffffffffffffffffffffffffffffffffffffffff169060200190929190803573ffffffffffffffffffffffffffffffffffffffff169060200190929190505050610885565b005b3480156101d557600080fd5b5061022a600480360381019080803573ffffffffffffffffffffffffffffffffffffffff169060200190929190803573ffffffffffffffffffffffffffffffffffffffff169060200190929190505050610add565b604051808215151515815260200191505060405180910390f35b34801561025057600080fd5b5061030b600480360381019080803573ffffffffffffffffffffffffffffffffffffffff169060200190929190803573ffffffffffffffffffffffffffffffffffffffff169060200190929190803573ffffffffffffffffffffffffffffffffffffffff169060200190929190803590602001908201803590602001908080601f0160208091040260200160405190810160405280939291908181526020018383808284378201915050505050509192919290505050610bf2565b005b34801561031957600080fd5b5061036e600480360381019080803573ffffffffffffffffffffffffffffffffffffffff169060200190929190803573ffffffffffffffffffffffffffffffffffffffff169060200190929190505050610f34565b005b34801561037c57600080fd5b506103b1600480360381019080803573ffffffffffffffffffffffffffffffffffffffff1690602001909291905050506110e0565b604051808273ffffffffffffffffffffffffffffffffffffffff1673ffffffffffffffffffffffffffffffffffffffff16815260200191505060405180910390f35b3480156103ff57600080fd5b50610454600480360381019080803573ffffffffffffffffffffffffffffffffffffffff169060200190929190803573ffffffffffffffffffffffffffffffffffffffff169060200190929190505050611113565b005b34801561046257600080fd5b506104b7600480360381019080803573ffffffffffffffffffffffffffffffffffffffff169060200190929190803573ffffffffffffffffffffffffffffffffffffffff1690602001909291905050506113eb565b005b3480156104c557600080fd5b506104fa600480360381019080803573ffffffffffffffffffffffffffffffffffffffff169060200190929190505050611664565b005b34801561050857600080fd5b5061053d600480360381019080803573ffffffffffffffffffffffffffffffffffffffff169060200190929190505050611a4b565b005b34801561054b57600080fd5b506105f0600480360381019080803573ffffffffffffffffffffffffffffffffffffffff169060200190929190803573ffffffffffffffffffffffffffffffffffffffff16906020019092919080359060200190929190803590602001908201803590602001908080601f0160208091040260200160405190810160405280939291908181526020018383808284378201915050505050509192919290505050611c00565b005b3480156105fe57600080fd5b50610653600480360381019080803573ffffffffffffffffffffffffffffffffffffffff169060200190929190803573ffffffffffffffffffffffffffffffffffffffff169060200190929190505050611d45565b005b34801561066157600080fd5b506106b6600480360381019080803573ffffffffffffffffffffffffffffffffffffffff169060200190929190803573ffffffffffffffffffffffffffffffffffffffff169060200190929190505050611fb6565b604051808215151515815260200191505060405180910390f35b3480156106dc57600080fd5b50610711600480360381019080803573ffffffffffffffffffffffffffffffffffffffff1690602001909291905050506120cb565b6040518082815260200191505060405180910390f35b34801561073357600080fd5b50610788600480360381019080803573ffffffffffffffffffffffffffffffffffffffff169060200190929190803573ffffffffffffffffffffffffffffffffffffffff1690602001909291905050506120e3565b005b34801561079657600080fd5b506107eb600480360381019080803573ffffffffffffffffffffffffffffffffffffffff169060200190929190803573ffffffffffffffffffffffffffffffffffffffff1690602001909291905050506122fa565b005b60008173ffffffffffffffffffffffffffffffffffffffff16600460008573ffffffffffffffffffffffffffffffffffffffff1673ffffffffffffffffffffffffffffffffffffffff16815260200190815260200160002060009054906101000a900473ffffffffffffffffffffffffffffffffffffffff1673ffffffffffffffffffffffffffffffffffffffff1614905092915050565b816108908133610add565b151561089b57600080fd5b826002544203600560008373ffffffffffffffffffffffffffffffffffffffff1673ffffffffffffffffffffffffffffffffffffffff16815260200190815260200160002060003373ffffffffffffffffffffffffffffffffffffffff1673ffffffffffffffffffffffffffffffffffffffff1681526020019081526020016000205410151561092a57600080fd5b42600560008373ffffffffffffffffffffffffffffffffffffffff1673ffffffffffffffffffffffffffffffffffffffff16815260200190815260200160002060003373ffffffffffffffffffffffffffffffffffffffff1673ffffffffffffffffffffffffffffffffffffffff168152602001908152602001600020819055506109b58484611fb6565b1515156109c157600080fd5b6001544203600360008673ffffffffffffffffffffffffffffffffffffffff1673ffffffffffffffffffffffffffffffffffffffff16815260200190815260200160002060008573ffffffffffffffffffffffffffffffffffffffff1673ffffffffffffffffffffffffffffffffffffffff168152602001908152602001600020819055508273ffffffffffffffffffffffffffffffffffffffff168473ffffffffffffffffffffffffffffffffffffffff167f8672e8532f3edff41d3acf0cd4be6ff900e427461b81d094f0197354471cb3c633604051808273ffffffffffffffffffffffffffffffffffffffff1673ffffffffffffffffffffffffffffffffffffffff16815260200191505060405180910390a350505050565b600080600360008573ffffffffffffffffffffffffffffffffffffffff1673ffffffffffffffffffffffffffffffffffffffff16815260200190815260200160002060008473ffffffffffffffffffffffffffffffffffffffff1673ffffffffffffffffffffffffffffffffffffffff16815260200190815260200160002054118015610bea575042600054600360008673ffffffffffffffffffffffffffffffffffffffff1673ffffffffffffffffffffffffffffffffffffffff16815260200190815260200160002060008573ffffffffffffffffffffffffffffffffffffffff1673ffffffffffffffffffffffffffffffffffffffff168152602001908152602001600020540111155b905092915050565b600083600073ffffffffffffffffffffffffffffffffffffffff168173ffffffffffffffffffffffffffffffffffffffff1614151515610c3157600080fd5b610c39612572565b604051809103906000f080158015610c55573d6000803e3d6000fd5b5091506000544203600360008473ffffffffffffffffffffffffffffffffffffffff1673ffffffffffffffffffffffffffffffffffffffff16815260200190815260200160002060008873ffffffffffffffffffffffffffffffffffffffff1673ffffffffffffffffffffffffffffffffffffffff1681526020019081526020016000208190555084600460008473ffffffffffffffffffffffffffffffffffffffff1673ffffffffffffffffffffffffffffffffffffffff16815260200190815260200160002060006101000a81548173ffffffffffffffffffffffffffffffffffffffff021916908373ffffffffffffffffffffffffffffffffffffffff1602179055508473ffffffffffffffffffffffffffffffffffffffff163373ffffffffffffffffffffffffffffffffffffffff168373ffffffffffffffffffffffffffffffffffffffff167f14e580ab5cd452b772e031536a7c893ec705152c17b3665c6671b382c3ee626689604051808273ffffffffffffffffffffffffffffffffffffffff1673ffffffffffffffffffffffffffffffffffffffff16815260200191505060405180910390a48173ffffffffffffffffffffffffffffffffffffffff1663d7f31eb9856000866040518463ffffffff167c0100000000000000000000000000000000000000000000000000000000028152600401808473ffffffffffffffffffffffffffffffffffffffff1673ffffffffffffffffffffffffffffffffffffffff16815260200183815260200180602001828103825283818151815260200191508051906020019080838360005b83811015610ec6578082015181840152602081019050610eab565b50505050905090810190601f168015610ef35780820380516001836020036101000a031916815260200191505b50945050505050600060405180830381600087803b158015610f1457600080fd5b505af1158015610f28573d6000803e3d6000fd5b50505050505050505050565b81610f3f8133610add565b1515610f4a57600080fd5b81600073ffffffffffffffffffffffffffffffffffffffff168173ffffffffffffffffffffffffffffffffffffffff1614151515610f8757600080fd5b42600660008673ffffffffffffffffffffffffffffffffffffffff1673ffffffffffffffffffffffffffffffffffffffff1681526020019081526020016000208190555082600760008673ffffffffffffffffffffffffffffffffffffffff1673ffffffffffffffffffffffffffffffffffffffff16815260200190815260200160002060006101000a81548173ffffffffffffffffffffffffffffffffffffffff021916908373ffffffffffffffffffffffffffffffffffffffff1602179055508273ffffffffffffffffffffffffffffffffffffffff168473ffffffffffffffffffffffffffffffffffffffff167fb7b4557c664a8a4a9a57f5e00f216de044a96f96fc84b70eaa6bd48cb078454133604051808273ffffffffffffffffffffffffffffffffffffffff1673ffffffffffffffffffffffffffffffffffffffff16815260200191505060405180910390a350505050565b60076020528060005260406000206000915054906101000a900473ffffffffffffffffffffffffffffffffffffffff1681565b813373ffffffffffffffffffffffffffffffffffffffff16600460008373ffffffffffffffffffffffffffffffffffffffff1673ffffffffffffffffffffffffffffffffffffffff16815260200190815260200160002060009054906101000a900473ffffffffffffffffffffffffffffffffffffffff1673ffffffffffffffffffffffffffffffffffffffff161415156111ad57600080fd5b826002544203600560008373ffffffffffffffffffffffffffffffffffffffff1673ffffffffffffffffffffffffffffffffffffffff16815260200190815260200160002060003373ffffffffffffffffffffffffffffffffffffffff1673ffffffffffffffffffffffffffffffffffffffff1681526020019081526020016000205410151561123c57600080fd5b42600560008373ffffffffffffffffffffffffffffffffffffffff1673ffffffffffffffffffffffffffffffffffffffff16815260200190815260200160002060003373ffffffffffffffffffffffffffffffffffffffff1673ffffffffffffffffffffffffffffffffffffffff168152602001908152602001600020819055506112c78484611fb6565b1515156112d357600080fd5b42600360008673ffffffffffffffffffffffffffffffffffffffff1673ffffffffffffffffffffffffffffffffffffffff16815260200190815260200160002060008573ffffffffffffffffffffffffffffffffffffffff1673ffffffffffffffffffffffffffffffffffffffff168152602001908152602001600020819055508273ffffffffffffffffffffffffffffffffffffffff168473ffffffffffffffffffffffffffffffffffffffff167f8672e8532f3edff41d3acf0cd4be6ff900e427461b81d094f0197354471cb3c633604051808273ffffffffffffffffffffffffffffffffffffffff1673ffffffffffffffffffffffffffffffffffffffff16815260200191505060405180910390a350505050565b816113f68133610add565b151561140157600080fd5b826002544203600560008373ffffffffffffffffffffffffffffffffffffffff1673ffffffffffffffffffffffffffffffffffffffff16815260200190815260200160002060003373ffffffffffffffffffffffffffffffffffffffff1673ffffffffffffffffffffffffffffffffffffffff1681526020019081526020016000205410151561149057600080fd5b42600560008373ffffffffffffffffffffffffffffffffffffffff1673ffffffffffffffffffffffffffffffffffffffff16815260200190815260200160002060003373ffffffffffffffffffffffffffffffffffffffff1673ffffffffffffffffffffffffffffffffffffffff1681526020019081526020016000208190555082600073ffffffffffffffffffffffffffffffffffffffff168173ffffffffffffffffffffffffffffffffffffffff161415151561154e57600080fd5b83600460008773ffffffffffffffffffffffffffffffffffffffff1673ffffffffffffffffffffffffffffffffffffffff16815260200190815260200160002060006101000a81548173ffffffffffffffffffffffffffffffffffffffff021916908373ffffffffffffffffffffffffffffffffffffffff1602179055508373ffffffffffffffffffffffffffffffffffffffff168573ffffffffffffffffffffffffffffffffffffffff167fbd1ad05c16aafa75ac8c1d6b8264f47ad9f3045596f667c9476f3f749c01870933604051808273ffffffffffffffffffffffffffffffffffffffff1673ffffffffffffffffffffffffffffffffffffffff16815260200191505060405180910390a35050505050565b6000816116718133610add565b151561167c57600080fd5b6000600660008573ffffffffffffffffffffffffffffffffffffffff1673ffffffffffffffffffffffffffffffffffffffff168152602001908152602001600020541415801561170e575042600054600660008673ffffffffffffffffffffffffffffffffffffffff1673ffffffffffffffffffffffffffffffffffffffff1681526020019081526020016000205401105b151561171957600080fd5b600760008473ffffffffffffffffffffffffffffffffffffffff1673ffffffffffffffffffffffffffffffffffffffff16815260200190815260200160002060009054906101000a900473ffffffffffffffffffffffffffffffffffffffff169150600660008473ffffffffffffffffffffffffffffffffffffffff1673ffffffffffffffffffffffffffffffffffffffff16815260200190815260200160002060009055600760008473ffffffffffffffffffffffffffffffffffffffff1673ffffffffffffffffffffffffffffffffffffffff16815260200190815260200160002060006101000a81549073ffffffffffffffffffffffffffffffffffffffff02191690558273ffffffffffffffffffffffffffffffffffffffff16631a695230836040518263ffffffff167c0100000000000000000000000000000000000000000000000000000000028152600401808273ffffffffffffffffffffffffffffffffffffffff1673ffffffffffffffffffffffffffffffffffffffff168152602001915050600060405180830381600087803b1580156118bb57600080fd5b505af11580156118cf573d6000803e3d6000fd5b50505050600460008473ffffffffffffffffffffffffffffffffffffffff1673ffffffffffffffffffffffffffffffffffffffff16815260200190815260200160002060006101000a81549073ffffffffffffffffffffffffffffffffffffffff0219169055600360008473ffffffffffffffffffffffffffffffffffffffff1673ffffffffffffffffffffffffffffffffffffffff16815260200190815260200160002060003373ffffffffffffffffffffffffffffffffffffffff1673ffffffffffffffffffffffffffffffffffffffff168152602001908152602001600020600090558173ffffffffffffffffffffffffffffffffffffffff168373ffffffffffffffffffffffffffffffffffffffff167f565ed5a2d5e196b82acb6ff1149b699c2b13169c7d34412d736d3c380de64f3133604051808273ffffffffffffffffffffffffffffffffffffffff1673ffffffffffffffffffffffffffffffffffffffff16815260200191505060405180910390a3505050565b600081611a588133611fb6565b1515611a6357600080fd5b600760008473ffffffffffffffffffffffffffffffffffffffff1673ffffffffffffffffffffffffffffffffffffffff16815260200190815260200160002060009054906101000a900473ffffffffffffffffffffffffffffffffffffffff169150600660008473ffffffffffffffffffffffffffffffffffffffff1673ffffffffffffffffffffffffffffffffffffffff16815260200190815260200160002060009055600760008473ffffffffffffffffffffffffffffffffffffffff1673ffffffffffffffffffffffffffffffffffffffff16815260200190815260200160002060006101000a81549073ffffffffffffffffffffffffffffffffffffffff02191690558173ffffffffffffffffffffffffffffffffffffffff168373ffffffffffffffffffffffffffffffffffffffff167f60e805c5650597523aba29fb00a59c856d925c672bce1ea7d579f03aef3a10ce33604051808273ffffffffffffffffffffffffffffffffffffffff1673ffffffffffffffffffffffffffffffffffffffff16815260200191505060405180910390a3505050565b83611c0b8133611fb6565b1515611c1657600080fd5b8473ffffffffffffffffffffffffffffffffffffffff1663d7f31eb98585856040518463ffffffff167c0100000000000000000000000000000000000000000000000000000000028152600401808473ffffffffffffffffffffffffffffffffffffffff1673ffffffffffffffffffffffffffffffffffffffff16815260200183815260200180602001828103825283818151815260200191508051906020019080838360005b83811015611cd8578082015181840152602081019050611cbd565b50505050905090810190601f168015611d055780820380516001836020036101000a031916815260200191505b50945050505050600060405180830381600087803b158015611d2657600080fd5b505af1158015611d3a573d6000803e3d6000fd5b505050505050505050565b80600073ffffffffffffffffffffffffffffffffffffffff168173ffffffffffffffffffffffffffffffffffffffff1614151515611d8257600080fd5b6000600460003373ffffffffffffffffffffffffffffffffffffffff1673ffffffffffffffffffffffffffffffffffffffff16815260200190815260200160002060009054906101000a900473ffffffffffffffffffffffffffffffffffffffff1673ffffffffffffffffffffffffffffffffffffffff16141515611e0657600080fd5b6000544203600360003373ffffffffffffffffffffffffffffffffffffffff1673ffffffffffffffffffffffffffffffffffffffff16815260200190815260200160002060008573ffffffffffffffffffffffffffffffffffffffff1673ffffffffffffffffffffffffffffffffffffffff1681526020019081526020016000208190555081600460003373ffffffffffffffffffffffffffffffffffffffff1673ffffffffffffffffffffffffffffffffffffffff16815260200190815260200160002060006101000a81548173ffffffffffffffffffffffffffffffffffffffff021916908373ffffffffffffffffffffffffffffffffffffffff1602179055508173ffffffffffffffffffffffffffffffffffffffff163373ffffffffffffffffffffffffffffffffffffffff163373ffffffffffffffffffffffffffffffffffffffff167f14e580ab5cd452b772e031536a7c893ec705152c17b3665c6671b382c3ee626686604051808273ffffffffffffffffffffffffffffffffffffffff1673ffffffffffffffffffffffffffffffffffffffff16815260200191505060405180910390a4505050565b600080600360008573ffffffffffffffffffffffffffffffffffffffff1673ffffffffffffffffffffffffffffffffffffffff16815260200190815260200160002060008473ffffffffffffffffffffffffffffffffffffffff1673ffffffffffffffffffffffffffffffffffffffff168152602001908152602001600020541180156120c3575042600154600360008673ffffffffffffffffffffffffffffffffffffffff1673ffffffffffffffffffffffffffffffffffffffff16815260200190815260200160002060008573ffffffffffffffffffffffffffffffffffffffff1673ffffffffffffffffffffffffffffffffffffffff168152602001908152602001600020540111155b905092915050565b60066020528060005260406000206000915090505481565b600081600073ffffffffffffffffffffffffffffffffffffffff168173ffffffffffffffffffffffffffffffffffffffff161415151561212257600080fd5b61212a612572565b604051809103906000f080158015612146573d6000803e3d6000fd5b5091506000544203600360008473ffffffffffffffffffffffffffffffffffffffff1673ffffffffffffffffffffffffffffffffffffffff16815260200190815260200160002060008673ffffffffffffffffffffffffffffffffffffffff1673ffffffffffffffffffffffffffffffffffffffff1681526020019081526020016000208190555082600460008473ffffffffffffffffffffffffffffffffffffffff1673ffffffffffffffffffffffffffffffffffffffff16815260200190815260200160002060006101000a81548173ffffffffffffffffffffffffffffffffffffffff021916908373ffffffffffffffffffffffffffffffffffffffff1602179055508273ffffffffffffffffffffffffffffffffffffffff163373ffffffffffffffffffffffffffffffffffffffff168373ffffffffffffffffffffffffffffffffffffffff167f14e580ab5cd452b772e031536a7c893ec705152c17b3665c6671b382c3ee626687604051808273ffffffffffffffffffffffffffffffffffffffff1673ffffffffffffffffffffffffffffffffffffffff16815260200191505060405180910390a450505050565b816123058133610add565b151561231057600080fd5b826002544203600560008373ffffffffffffffffffffffffffffffffffffffff1673ffffffffffffffffffffffffffffffffffffffff16815260200190815260200160002060003373ffffffffffffffffffffffffffffffffffffffff1673ffffffffffffffffffffffffffffffffffffffff1681526020019081526020016000205410151561239f57600080fd5b42600560008373ffffffffffffffffffffffffffffffffffffffff1673ffffffffffffffffffffffffffffffffffffffff16815260200190815260200160002060003373ffffffffffffffffffffffffffffffffffffffff1673ffffffffffffffffffffffffffffffffffffffff168152602001908152602001600020819055508273ffffffffffffffffffffffffffffffffffffffff163373ffffffffffffffffffffffffffffffffffffffff161415151561245b57600080fd5b600360008573ffffffffffffffffffffffffffffffffffffffff1673ffffffffffffffffffffffffffffffffffffffff16815260200190815260200160002060008473ffffffffffffffffffffffffffffffffffffffff1673ffffffffffffffffffffffffffffffffffffffff168152602001908152602001600020600090558273ffffffffffffffffffffffffffffffffffffffff168473ffffffffffffffffffffffffffffffffffffffff167f5e159cd4447854ae8b4aa048f91c8daad986faab696c3685030e1a5e5a4e8ced33604051808273ffffffffffffffffffffffffffffffffffffffff1673ffffffffffffffffffffffffffffffffffffffff16815260200191505060405180910390a350505050565b6040516104c6806125838339019056006080604052336000806101000a81548173ffffffffffffffffffffffffffffffffffffffff021916908373ffffffffffffffffffffffffffffffffffffffff160217905550610473806100536000396000f300608060405260043610610062576000357c0100000000000000000000000000000000000000000000000000000000900463ffffffff1680631a695230146100b25780632f54bf6e146100f55780638da5cb5b14610150578063d7f31eb9146101a7575b3373ffffffffffffffffffffffffffffffffffffffff167f88a5966d370b9919b20f3e2c13ff65706f196a4e32cc2c12bf57088f88525874346040518082815260200191505060405180910390a2005b3480156100be57600080fd5b506100f3600480360381019080803573ffffffffffffffffffffffffffffffffffffffff16906020019092919050505061023a565b005b34801561010157600080fd5b50610136600480360381019080803573ffffffffffffffffffffffffffffffffffffffff1690602001909291905050506102c7565b604051808215151515815260200191505060405180910390f35b34801561015c57600080fd5b50610165610320565b604051808273ffffffffffffffffffffffffffffffffffffffff1673ffffffffffffffffffffffffffffffffffffffff16815260200191505060405180910390f35b3480156101b357600080fd5b50610238600480360381019080803573ffffffffffffffffffffffffffffffffffffffff16906020019092919080359060200190929190803590602001908201803590602001908080601f0160208091040260200160405190810160405280939291908181526020018383808284378201915050505050509192919290505050610345565b005b610243336102c7565b151561024e57600080fd5b3073ffffffffffffffffffffffffffffffffffffffff168173ffffffffffffffffffffffffffffffffffffffff161415156102c457806000806101000a81548173ffffffffffffffffffffffffffffffffffffffff021916908373ffffffffffffffffffffffffffffffffffffffff1602179055505b50565b60008060009054906101000a900473ffffffffffffffffffffffffffffffffffffffff1673ffffffffffffffffffffffffffffffffffffffff168273ffffffffffffffffffffffffffffffffffffffff16149050919050565b6000809054906101000a900473ffffffffffffffffffffffffffffffffffffffff1681565b61034e336102c7565b151561035957600080fd5b61036483838361042f565b151561036f57600080fd5b8273ffffffffffffffffffffffffffffffffffffffff167fc1de93dfa06362c6a616cde73ec17d116c0d588dd1df70f27f91b500de207c4183836040518083815260200180602001828103825283818151815260200191508051906020019080838360005b838110156103ef5780820151818401526020810190506103d4565b50505050905090810190601f16801561041c5780820380516001836020036101000a031916815260200191505b50935050505060405180910390a2505050565b600080600083516020850186885af1905093925050505600a165627a7a72305820569d0719b09f3dd5720893b112825d9b3d7580dd55727c14fded8b54d3f754890029a165627a7a723058203a46269d6b780686990bc15e251c04125890f1c808b3dcd7ffb9a3760032aa0d0029",
  "source": "pragma solidity 0.4.24;\r\nimport \"./Proxy.sol\";\r\n\r\n\r\ncontract IdentityManager {\r\n    uint adminTimeLock;\r\n    uint userTimeLock;\r\n    uint adminRate;\r\n\r\n    event LogIdentityCreated(\r\n        address indexed identity,\r\n        address indexed creator,\r\n        address owner,\r\n        address indexed recoveryKey);\r\n\r\n    event LogOwnerAdded(\r\n        address indexed identity,\r\n        address indexed owner,\r\n        address instigator);\r\n\r\n    event LogOwnerRemoved(\r\n        address indexed identity,\r\n        address indexed owner,\r\n        address instigator);\r\n\r\n    event LogRecoveryChanged(\r\n        address indexed identity,\r\n        address indexed recoveryKey,\r\n        address instigator);\r\n\r\n    event LogMigrationInitiated(\r\n        address indexed identity,\r\n        address indexed newIdManager,\r\n        address instigator);\r\n\r\n    event LogMigrationCanceled(\r\n        address indexed identity,\r\n        address indexed newIdManager,\r\n        address instigator);\r\n\r\n    event LogMigrationFinalized(\r\n        address indexed identity,\r\n        address indexed newIdManager,\r\n        address instigator);\r\n\r\n    mapping(address => mapping(address => uint)) owners;\r\n    mapping(address => address) recoveryKeys;\r\n    mapping(address => mapping(address => uint)) limiter;\r\n    mapping(address => uint) public migrationInitiated;\r\n    mapping(address => address) public migrationNewAddress;\r\n\r\n    modifier onlyOwner(address identity) {\r\n        require(isOwner(identity, msg.sender));\r\n        _;\r\n    }\r\n\r\n    modifier onlyOlderOwner(address identity) {\r\n        require(isOlderOwner(identity, msg.sender));\r\n        _;\r\n    }\r\n\r\n    modifier onlyRecovery(address identity) {\r\n        require(recoveryKeys[identity] == msg.sender);\r\n        _;\r\n    }\r\n\r\n    modifier rateLimited(address identity) {\r\n        require(limiter[identity][msg.sender] < (now - adminRate));\r\n        limiter[identity][msg.sender] = now;\r\n        _;\r\n    }\r\n\r\n    modifier validAddress(address addr) { //protects against some weird attacks\r\n        require(addr != address(0));\r\n        _;\r\n    }\r\n\r\n    /// @dev Contract constructor sets initial timelock limits\r\n    /// @param _userTimeLock Time before new owner added by recovery can control proxy\r\n    /// @param _adminTimeLock Time before new owner can add/remove owners\r\n    /// @param _adminRate Time period used for rate limiting a given key for admin functionality\r\n    function IdentityManager(uint _userTimeLock, uint _adminTimeLock, uint _adminRate) {\r\n        require(_adminTimeLock >= _userTimeLock);\r\n        adminTimeLock = _adminTimeLock;\r\n        userTimeLock = _userTimeLock;\r\n        adminRate = _adminRate;\r\n    }\r\n\r\n    /// @dev Creates a new proxy contract for an owner and recovery\r\n    /// @param owner Key who can use this contract to control proxy. Given full power\r\n    /// @param recoveryKey Key of recovery network or address from seed to recovery proxy\r\n    /// Gas cost of 289,311\r\n    function createIdentity(address owner, address recoveryKey) public validAddress(recoveryKey) {\r\n        Proxy identity = new Proxy();\r\n        owners[identity][owner] = now - adminTimeLock; // This is to ensure original owner has full power from day one\r\n        recoveryKeys[identity] = recoveryKey;\r\n        LogIdentityCreated(identity, msg.sender, owner,  recoveryKey);\r\n    }\r\n\r\n    /// @dev Creates a new proxy contract for an owner and recovery and allows an initial forward call which would be to set the registry in our case\r\n    /// @param owner Key who can use this contract to control proxy. Given full power\r\n    /// @param recoveryKey Key of recovery network or address from seed to recovery proxy\r\n    /// @param destination Address of contract to be called after proxy is created\r\n    /// @param data of function to be called at the destination contract\r\n    function createIdentityWithCall(address owner, address recoveryKey, address destination, bytes data) public validAddress(recoveryKey) {\r\n        Proxy identity = new Proxy();\r\n        owners[identity][owner] = now - adminTimeLock; // This is to ensure original owner has full power from day one\r\n        recoveryKeys[identity] = recoveryKey;\r\n        LogIdentityCreated(identity, msg.sender, owner,  recoveryKey);\r\n        identity.forward(destination, 0, data);\r\n    }\r\n\r\n    /// @dev Allows a user to transfer control of existing proxy to this contract. Must come through proxy\r\n    /// @param owner Key who can use this contract to control proxy. Given full power\r\n    /// @param recoveryKey Key of recovery network or address from seed to recovery proxy\r\n    /// Note: User must change owner of proxy to this contract after calling this\r\n    function registerIdentity(address owner, address recoveryKey) public validAddress(recoveryKey) {\r\n        require(recoveryKeys[msg.sender] == 0); // Deny any funny business\r\n        owners[msg.sender][owner] = now - adminTimeLock; // This is to ensure original owner has full power from day one\r\n        recoveryKeys[msg.sender] = recoveryKey;\r\n        LogIdentityCreated(msg.sender, msg.sender, owner, recoveryKey);\r\n    }\r\n\r\n    /// @dev Allows a user to forward a call through their proxy.\r\n    function forwardTo(Proxy identity, address destination, uint value, bytes data) public onlyOwner(identity) {\r\n        identity.forward(destination, value, data);\r\n    }\r\n\r\n    /// @dev Allows an olderOwner to add a new owner instantly\r\n    function addOwner(Proxy identity, address newOwner) public onlyOlderOwner(identity) rateLimited(identity) {\r\n        require(!isOwner(identity, newOwner));\r\n        owners[identity][newOwner] = now - userTimeLock;\r\n        LogOwnerAdded(identity, newOwner, msg.sender);\r\n    }\r\n\r\n    /// @dev Allows a recoveryKey to add a new owner with userTimeLock waiting time\r\n    function addOwnerFromRecovery(Proxy identity, address newOwner) public onlyRecovery(identity) rateLimited(identity) {\r\n        require(!isOwner(identity, newOwner));\r\n        owners[identity][newOwner] = now;\r\n        LogOwnerAdded(identity, newOwner, msg.sender);\r\n    }\r\n\r\n    /// @dev Allows an owner to remove another owner instantly\r\n    function removeOwner(Proxy identity, address owner) public onlyOlderOwner(identity) rateLimited(identity) {\r\n        // an owner should not be allowed to remove itself\r\n        require(msg.sender != owner);\r\n        delete owners[identity][owner];\r\n        LogOwnerRemoved(identity, owner, msg.sender);\r\n    }\r\n\r\n    /// @dev Allows an owner to change the recoveryKey instantly\r\n    function changeRecovery(Proxy identity, address recoveryKey) public\r\n        onlyOlderOwner(identity)\r\n        rateLimited(identity)\r\n        validAddress(recoveryKey)\r\n    {\r\n        recoveryKeys[identity] = recoveryKey;\r\n        LogRecoveryChanged(identity, recoveryKey, msg.sender);\r\n    }\r\n\r\n    /// @dev Allows an owner to begin process of transfering proxy to new IdentityManager\r\n    function initiateMigration(Proxy identity, address newIdManager) public\r\n        onlyOlderOwner(identity)\r\n        validAddress(newIdManager)\r\n    {\r\n        migrationInitiated[identity] = now;\r\n        migrationNewAddress[identity] = newIdManager;\r\n        LogMigrationInitiated(identity, newIdManager, msg.sender);\r\n    }\r\n\r\n    /// @dev Allows an owner to cancel the process of transfering proxy to new IdentityManager\r\n    function cancelMigration(Proxy identity) public onlyOwner(identity) {\r\n        address canceledManager = migrationNewAddress[identity];\r\n        delete migrationInitiated[identity];\r\n        delete migrationNewAddress[identity];\r\n        LogMigrationCanceled(identity, canceledManager, msg.sender);\r\n    }\r\n\r\n    /// @dev Allows an owner to finalize migration once adminTimeLock time has passed\r\n    /// WARNING: before transfering to a new address, make sure this address is \"ready to recieve\" the proxy.\r\n    /// Not doing so risks the proxy becoming stuck.\r\n    function finalizeMigration(Proxy identity) public onlyOlderOwner(identity) {\r\n        require(migrationInitiated[identity] != 0 && migrationInitiated[identity] + adminTimeLock < now);\r\n        address newIdManager = migrationNewAddress[identity];\r\n        delete migrationInitiated[identity];\r\n        delete migrationNewAddress[identity];\r\n        identity.transfer(newIdManager);\r\n        delete recoveryKeys[identity];\r\n        // We can only delete the owner that we know of. All other owners\r\n        // needs to be removed before a call to this method.\r\n        delete owners[identity][msg.sender];\r\n        LogMigrationFinalized(identity, newIdManager, msg.sender);\r\n    }\r\n\r\n    function isOwner(address identity, address owner) public constant returns (bool) {\r\n        return (owners[identity][owner] > 0 && (owners[identity][owner] + userTimeLock) <= now);\r\n    }\r\n\r\n    function isOlderOwner(address identity, address owner) public constant returns (bool) {\r\n        return (owners[identity][owner] > 0 && (owners[identity][owner] + adminTimeLock) <= now);\r\n    }\r\n\r\n    function isRecovery(address identity, address recoveryKey) public constant returns (bool) {\r\n        return recoveryKeys[identity] == recoveryKey;\r\n    }\r\n}\r\n",
  "sourcePath": "/mnt/c/myproject/dapps/contracts/uport-identity/IdentityManager.sol",
  "compiler": {
    "name": "solc",
    "version": "0.4.24+commit.e67f0147.Emscripten.clang"
  },
  "schemaVersion": "2.0.0",
  "updatedAt": "2018-09-04T07:38:50.549Z"
}