{
  "contractName": "SimpleSocialNetwork",
  "abi": [
    {
      "constant": true,
      "inputs": [
        {
          "name": "",
          "type": "uint256"
        }
      ],
      "name": "posts",
      "outputs": [
        {
          "name": "text",
          "type": "string"
        }
      ],
      "payable": false,
      "stateMutability": "view",
      "type": "function"
    },
    {
      "constant": true,
      "inputs": [
        {
          "name": "",
          "type": "uint256"
        }
      ],
      "name": "commentFromAccount",
      "outputs": [
        {
          "name": "",
          "type": "address"
        }
      ],
      "payable": false,
      "stateMutability": "view",
      "type": "function"
    },
    {
      "constant": true,
      "inputs": [
        {
          "name": "",
          "type": "uint256"
        }
      ],
      "name": "comments",
      "outputs": [
        {
          "name": "text",
          "type": "string"
        }
      ],
      "payable": false,
      "stateMutability": "view",
      "type": "function"
    },
    {
      "constant": true,
      "inputs": [
        {
          "name": "",
          "type": "address"
        },
        {
          "name": "",
          "type": "uint256"
        }
      ],
      "name": "postsFromAccount",
      "outputs": [
        {
          "name": "",
          "type": "uint256"
        }
      ],
      "payable": false,
      "stateMutability": "view",
      "type": "function"
    },
    {
      "constant": true,
      "inputs": [
        {
          "name": "",
          "type": "uint256"
        },
        {
          "name": "",
          "type": "uint256"
        }
      ],
      "name": "commentsFromPost",
      "outputs": [
        {
          "name": "",
          "type": "uint256"
        }
      ],
      "payable": false,
      "stateMutability": "view",
      "type": "function"
    },
    {
      "inputs": [],
      "payable": false,
      "stateMutability": "nonpayable",
      "type": "constructor"
    },
    {
      "anonymous": false,
      "inputs": [
        {
          "indexed": false,
          "name": "postId",
          "type": "uint256"
        },
        {
          "indexed": false,
          "name": "commentId",
          "type": "uint256"
        },
        {
          "indexed": false,
          "name": "owner",
          "type": "address"
        }
      ],
      "name": "NewPostAdded",
      "type": "event"
    },
    {
      "constant": true,
      "inputs": [],
      "name": "hasPosts",
      "outputs": [
        {
          "name": "_hasPosts",
          "type": "bool"
        }
      ],
      "payable": false,
      "stateMutability": "view",
      "type": "function"
    },
    {
      "constant": false,
      "inputs": [
        {
          "name": "_text",
          "type": "string"
        }
      ],
      "name": "newPost",
      "outputs": [],
      "payable": false,
      "stateMutability": "nonpayable",
      "type": "function"
    },
    {
      "constant": false,
      "inputs": [
        {
          "name": "_postId",
          "type": "uint256"
        },
        {
          "name": "_text",
          "type": "string"
        }
      ],
      "name": "newComment",
      "outputs": [],
      "payable": false,
      "stateMutability": "nonpayable",
      "type": "function"
    }
  ],
  "bytecode": "0x608060405234801561001057600080fd5b506100396020604051908101604052806000815250610068640100000000026401000000009004565b610063600060206040519081016040528060008152506101b3640100000000026401000000009004565b6103f2565b610070610325565b6000602060405190810160405280848152509150600160038390806001815401808255809150509060018203906000526020600020016000909192909190915060008201518160000190805190602001906100cc929190610339565b5050500390506000803373ffffffffffffffffffffffffffffffffffffffff1673ffffffffffffffffffffffffffffffffffffffff1681526020019081526020016000208190806001815401808255809150509060018203906000526020600020016000909192909190915055507f7694d63d2563aeac8aad2b0a111ef1ba09b12b9748ef4ae1010584d554b87fea81600033604051808481526020018381526020018273ffffffffffffffffffffffffffffffffffffffff1673ffffffffffffffffffffffffffffffffffffffff168152602001935050505060405180910390a1505050565b6101bb6103b9565b600060206040519081016040528084815250915060016004839080600181540180825580915050906001820390600052602060002001600090919290919091506000820151816000019080519060200190610217929190610339565b50505003905060016000858152602001908152602001600020819080600181540180825580915050906001820390600052602060002001600090919290919091505550336002600083815260200190815260200160002060006101000a81548173ffffffffffffffffffffffffffffffffffffffff021916908373ffffffffffffffffffffffffffffffffffffffff1602179055507f7694d63d2563aeac8aad2b0a111ef1ba09b12b9748ef4ae1010584d554b87fea848233604051808481526020018381526020018273ffffffffffffffffffffffffffffffffffffffff1673ffffffffffffffffffffffffffffffffffffffff168152602001935050505060405180910390a150505050565b602060405190810160405280606081525090565b828054600181600116156101000203166002900490600052602060002090601f016020900481019282601f1061037a57805160ff19168380011785556103a8565b828001600101855582156103a8579182015b828111156103a757825182559160200191906001019061038c565b5b5090506103b591906103cd565b5090565b602060405190810160405280606081525090565b6103ef91905b808211156103eb5760008160009055506001016103d3565b5090565b90565b6109dd806104016000396000f30060806040526004361061008e576000357c0100000000000000000000000000000000000000000000000000000000900463ffffffff16806309787a2c146100935780630b1e7f831461010657806310fdf92a146101ac57806323bcaae9146102195780635a9cfac8146102825780638ebb4c15146102b1578063acdc2cde14610357578063cd65eabe146103b8575b600080fd5b34801561009f57600080fd5b5061010460048036038101908080359060200190929190803590602001908201803590602001908080601f0160208091040260200160405190810160405280939291908181526020018383808284378201915050505050509192919290505050610403565b005b34801561011257600080fd5b5061013160048036038101908080359060200190929190505050610575565b6040518080602001828103825283818151815260200191508051906020019080838360005b83811015610171578082015181840152602081019050610156565b50505050905090810190601f16801561019e5780820380516001836020036101000a031916815260200191505b509250505060405180910390f35b3480156101b857600080fd5b506101d760048036038101908080359060200190929190505050610636565b604051808273ffffffffffffffffffffffffffffffffffffffff1673ffffffffffffffffffffffffffffffffffffffff16815260200191505060405180910390f35b34801561022557600080fd5b50610280600480360381019080803590602001908201803590602001908080601f0160208091040260200160405190810160405280939291908181526020018383808284378201915050505050509192919290505050610669565b005b34801561028e57600080fd5b506102976107b4565b604051808215151515815260200191505060405180910390f35b3480156102bd57600080fd5b506102dc600480360381019080803590602001909291905050506107c3565b6040518080602001828103825283818151815260200191508051906020019080838360005b8381101561031c578082015181840152602081019050610301565b50505050905090810190601f1680156103495780820380516001836020036101000a031916815260200191505b509250505060405180910390f35b34801561036357600080fd5b506103a2600480360381019080803573ffffffffffffffffffffffffffffffffffffffff16906020019092919080359060200190929190505050610884565b6040518082815260200191505060405180910390f35b3480156103c457600080fd5b506103ed60048036038101908080359060200190929190803590602001909291905050506108b4565b6040518082815260200191505060405180910390f35b61040b6108e4565b6000602060405190810160405280848152509150600160048390806001815401808255809150509060018203906000526020600020016000909192909190915060008201518160000190805190602001906104679291906108f8565b50505003905060016000858152602001908152602001600020819080600181540180825580915050906001820390600052602060002001600090919290919091505550336002600083815260200190815260200160002060006101000a81548173ffffffffffffffffffffffffffffffffffffffff021916908373ffffffffffffffffffffffffffffffffffffffff1602179055507f7694d63d2563aeac8aad2b0a111ef1ba09b12b9748ef4ae1010584d554b87fea848233604051808481526020018381526020018273ffffffffffffffffffffffffffffffffffffffff1673ffffffffffffffffffffffffffffffffffffffff168152602001935050505060405180910390a150505050565b60038181548110151561058457fe5b90600052602060002001600091509050806000018054600181600116156101000203166002900480601f01602080910402602001604051908101604052809291908181526020018280546001816001161561010002031660029004801561062c5780601f106106015761010080835404028352916020019161062c565b820191906000526020600020905b81548152906001019060200180831161060f57829003601f168201915b5050505050905081565b60026020528060005260406000206000915054906101000a900473ffffffffffffffffffffffffffffffffffffffff1681565b610671610978565b6000602060405190810160405280848152509150600160038390806001815401808255809150509060018203906000526020600020016000909192909190915060008201518160000190805190602001906106cd9291906108f8565b5050500390506000803373ffffffffffffffffffffffffffffffffffffffff1673ffffffffffffffffffffffffffffffffffffffff1681526020019081526020016000208190806001815401808255809150509060018203906000526020600020016000909192909190915055507f7694d63d2563aeac8aad2b0a111ef1ba09b12b9748ef4ae1010584d554b87fea81600033604051808481526020018381526020018273ffffffffffffffffffffffffffffffffffffffff1673ffffffffffffffffffffffffffffffffffffffff168152602001935050505060405180910390a1505050565b60008060038054905011905090565b6004818154811015156107d257fe5b90600052602060002001600091509050806000018054600181600116156101000203166002900480601f01602080910402602001604051908101604052809291908181526020018280546001816001161561010002031660029004801561087a5780601f1061084f5761010080835404028352916020019161087a565b820191906000526020600020905b81548152906001019060200180831161085d57829003601f168201915b5050505050905081565b60006020528160005260406000208181548110151561089f57fe5b90600052602060002001600091509150505481565b6001602052816000526040600020818154811015156108cf57fe5b90600052602060002001600091509150505481565b602060405190810160405280606081525090565b828054600181600116156101000203166002900490600052602060002090601f016020900481019282601f1061093957805160ff1916838001178555610967565b82800160010185558215610967579182015b8281111561096657825182559160200191906001019061094b565b5b509050610974919061098c565b5090565b602060405190810160405280606081525090565b6109ae91905b808211156109aa576000816000905550600101610992565b5090565b905600a165627a7a723058206ff51fd779fe67274fd6fb2bd9eef6f9de2c61833d17b0bc2c6dcca3a3c7d9a50029",
  "source": "pragma solidity ^0.4.24;\n\ncontract SimpleSocialNetwork {\n    struct Comment {\n        string text;\n    }\n\n    struct Post {\n        string text;\n    }\n\n    mapping (address => uint[]) public postsFromAccount;\n    mapping (uint => uint[]) public commentsFromPost;\n    mapping (uint => address) public commentFromAccount;\n\n    Post[] public posts;\n    Comment[] public comments;\n\n    event NewPostAdded(uint postId, uint commentId, address owner);\n\n    constructor () public {\n        // created the first post and comment with ID\n        // IDs 0 are invalid\n        newPost(\"\");\n        newComment(0, \"\");\n    }\n\n    function hasPosts() public view returns(bool _hasPosts) {\n        _hasPosts = posts.length > 0;\n    }\n\n    function newPost(string _text) public {\n        Post memory post = Post(_text);\n        uint postId = posts.push(post) - 1;\n        postsFromAccount[msg.sender].push(postId);\n        emit NewPostAdded(postId, 0, msg.sender);\n    }\n\n    function newComment(uint _postId, string _text) public {\n        Comment memory comment = Comment(_text);\n        uint commentId = comments.push(comment) - 1;\n        commentsFromPost[_postId].push(commentId);\n        commentFromAccount[commentId] = msg.sender;\n        emit NewPostAdded(_postId, commentId, msg.sender);\n    }\n}",
  "sourcePath": "/myproject/dapps/contracts/uport-identity/SimpleSocialNetwork.sol",
  "compiler": {
    "name": "solc",
    "version": "0.4.24+commit.e67f0147.Emscripten.clang"
  },
  "schemaVersion": "2.0.1",
  "updatedAt": "2018-10-08T14:04:15.302Z"
}