{
  "contractName": "TxRelay",
  "abi": [
    {
      "constant": true,
      "inputs": [
        {
          "name": "",
          "type": "address"
        },
        {
          "name": "",
          "type": "address"
        }
      ],
      "name": "whitelist",
      "outputs": [
        {
          "name": "",
          "type": "bool"
        }
      ],
      "payable": false,
      "stateMutability": "view",
      "type": "function"
    },
    {
      "constant": false,
      "inputs": [
        {
          "name": "sigV",
          "type": "uint8"
        },
        {
          "name": "sigR",
          "type": "bytes32"
        },
        {
          "name": "sigS",
          "type": "bytes32"
        },
        {
          "name": "destination",
          "type": "address"
        },
        {
          "name": "data",
          "type": "bytes"
        },
        {
          "name": "listOwner",
          "type": "address"
        }
      ],
      "name": "relayMetaTx",
      "outputs": [],
      "payable": false,
      "stateMutability": "nonpayable",
      "type": "function"
    },
    {
      "constant": true,
      "inputs": [
        {
          "name": "b",
          "type": "bytes"
        }
      ],
      "name": "getAddress",
      "outputs": [
        {
          "name": "a",
          "type": "address"
        }
      ],
      "payable": false,
      "stateMutability": "view",
      "type": "function"
    },
    {
      "constant": true,
      "inputs": [
        {
          "name": "add",
          "type": "address"
        }
      ],
      "name": "getNonce",
      "outputs": [
        {
          "name": "",
          "type": "uint256"
        }
      ],
      "payable": false,
      "stateMutability": "view",
      "type": "function"
    },
    {
      "constant": false,
      "inputs": [
        {
          "name": "sendersToUpdate",
          "type": "address[]"
        }
      ],
      "name": "addToWhitelist",
      "outputs": [],
      "payable": false,
      "stateMutability": "nonpayable",
      "type": "function"
    },
    {
      "constant": false,
      "inputs": [
        {
          "name": "sendersToUpdate",
          "type": "address[]"
        }
      ],
      "name": "removeFromWhitelist",
      "outputs": [],
      "payable": false,
      "stateMutability": "nonpayable",
      "type": "function"
    }
  ],
  "bytecode": "0x608060405234801561001057600080fd5b50610a1a806100206000396000f300608060405260043610610078576000357c0100000000000000000000000000000000000000000000000000000000900463ffffffff1680632d0335ab1461007d578063548db174146100d45780637f6497831461013a578063b092145e146101a0578063c3f44c0a1461021b578063c47cf5de146102ed575b600080fd5b34801561008957600080fd5b506100be600480360381019080803573ffffffffffffffffffffffffffffffffffffffff169060200190929190505050610396565b6040518082815260200191505060405180910390f35b3480156100e057600080fd5b50610138600480360381019080803590602001908201803590602001908080602002602001604051908101604052809392919081815260200183836020028082843782019150505050505091929192905050506103de565b005b34801561014657600080fd5b5061019e600480360381019080803590602001908201803590602001908080602002602001604051908101604052809392919081815260200183836020028082843782019150505050505091929192905050506103ec565b005b3480156101ac57600080fd5b50610201600480360381019080803573ffffffffffffffffffffffffffffffffffffffff169060200190929190803573ffffffffffffffffffffffffffffffffffffffff1690602001909291905050506103fa565b604051808215151515815260200191505060405180910390f35b34801561022757600080fd5b506102eb600480360381019080803560ff16906020019092919080356000191690602001909291908035600019169060200190929190803573ffffffffffffffffffffffffffffffffffffffff169060200190929190803590602001908201803590602001908080601f0160208091040260200160405190810160405280939291908181526020018383808284378201915050505050509192919290803573ffffffffffffffffffffffffffffffffffffffff169060200190929190505050610429565b005b3480156102f957600080fd5b50610354600480360381019080803590602001908201803590602001908080601f01602080910402602001604051908101604052809392919081815260200183838082843782019150505050505091929192905050506108e8565b604051808273ffffffffffffffffffffffffffffffffffffffff1673ffffffffffffffffffffffffffffffffffffffff16815260200191505060405180910390f35b60008060008373ffffffffffffffffffffffffffffffffffffffff1673ffffffffffffffffffffffffffffffffffffffff168152602001908152602001600020549050919050565b6103e9816000610922565b50565b6103f7816001610922565b50565b60016020528160005260406000206020528060005260406000206000915091509054906101000a900460ff1681565b6000806000808473ffffffffffffffffffffffffffffffffffffffff1614806104d85750600160008573ffffffffffffffffffffffffffffffffffffffff1673ffffffffffffffffffffffffffffffffffffffff16815260200190815260200160002060003373ffffffffffffffffffffffffffffffffffffffff1673ffffffffffffffffffffffffffffffffffffffff16815260200190815260200160002060009054906101000a900460ff165b15156104e357600080fd5b6104ec856108e8565b925060197f01000000000000000000000000000000000000000000000000000000000000000260007f01000000000000000000000000000000000000000000000000000000000000000230866000808873ffffffffffffffffffffffffffffffffffffffff1673ffffffffffffffffffffffffffffffffffffffff168152602001908152602001600020548a8a60405180887effffffffffffffffffffffffffffffffffffffffffffffffffffffffffffff19167effffffffffffffffffffffffffffffffffffffffffffffffffffffffffffff19168152600101877effffffffffffffffffffffffffffffffffffffffffffffffffffffffffffff19167effffffffffffffffffffffffffffffffffffffffffffffffffffffffffffff191681526001018673ffffffffffffffffffffffffffffffffffffffff1673ffffffffffffffffffffffffffffffffffffffff166c010000000000000000000000000281526014018573ffffffffffffffffffffffffffffffffffffffff1673ffffffffffffffffffffffffffffffffffffffff166c010000000000000000000000000281526014018481526020018373ffffffffffffffffffffffffffffffffffffffff1673ffffffffffffffffffffffffffffffffffffffff166c0100000000000000000000000002815260140182805190602001908083835b60208310151561070b57805182526020820191506020810190506020830392506106e6565b6001836020036101000a038019825116818451168082178552505050505050905001975050505050505050604051809103902091506001828a8a8a604051600081526020016040526040518085600019166000191681526020018460ff1660ff1681526020018360001916600019168152602001826000191660001916815260200194505050505060206040516020810390808403906000865af11580156107b7573d6000803e3d6000fd5b5050506020604051035190508073ffffffffffffffffffffffffffffffffffffffff168373ffffffffffffffffffffffffffffffffffffffff161415156107fd57600080fd5b6000808473ffffffffffffffffffffffffffffffffffffffff1673ffffffffffffffffffffffffffffffffffffffff168152602001908152602001600020600081548092919060010191905055508573ffffffffffffffffffffffffffffffffffffffff168560405180828051906020019080838360005b83811015610890578082015181840152602081019050610875565b50505050905090810190601f1680156108bd5780820380516001836020036101000a031916815260200191505b509150506000604051808303816000865af191505015156108dd57600080fd5b505050505050505050565b60006024825110156108fd576000905061091d565b73ffffffffffffffffffffffffffffffffffffffff602483015181169150505b919050565b60008090505b82518110156109e95781600160003373ffffffffffffffffffffffffffffffffffffffff1673ffffffffffffffffffffffffffffffffffffffff1681526020019081526020016000206000858481518110151561098157fe5b9060200190602002015173ffffffffffffffffffffffffffffffffffffffff1673ffffffffffffffffffffffffffffffffffffffff16815260200190815260200160002060006101000a81548160ff0219169083151502179055508080600101915050610928565b5050505600a165627a7a723058205a974f552535069485ac10a21a4e5be5c4fa502db2f326c4bc897a8a219822f70029",
  "source": "pragma solidity 0.4.24;\n\n\n// This contract is meant as a \"singleton\" forwarding contract.\n// Eventually, it will be able to forward any transaction to\n// Any contract that is built to accept it.\ncontract TxRelay {\n\n    // Note: This is a local nonce.\n    // Different from the nonce defined w/in protocol.\n    mapping(address => uint) nonce;\n\n    // This mapping specifies a whitelist of allowed senders for transactions.\n    // There can be one whitelist per ethereum account, which is the owner of that\n    // whitelist. Users can specify which whitelist they want to use when signing\n    // a transaction. They can use their own whitelist, a whitelist belonging\n    // to another account, or skip using a whitelist by specifying the zero address.\n    mapping(address => mapping(address => bool)) public whitelist;\n\n    /*\n     * @dev Relays meta transactions\n     * @param sigV, sigR, sigS ECDSA signature on some data to be forwarded\n     * @param destination Location the meta-tx should be forwarded to\n     * @param data The bytes necessary to call the function in the destination contract.\n     * Note: The first encoded argument in data must be address of the signer. This means\n     * that all functions called from this relay must take an address as the first parameter.\n     */\n    function relayMetaTx(\n        uint8 sigV,\n        bytes32 sigR,\n        bytes32 sigS,\n        address destination,\n        bytes data,\n        address listOwner\n    ) public {\n\n        // only allow senders from the whitelist specified by the user,\n        // 0x0 means no whitelist.\n        require(listOwner == 0x0 || whitelist[listOwner][msg.sender]);\n\n        address claimedSender = getAddress(data);\n        // use EIP 191\n        // 0x19 :: version :: relay :: whitelistOwner :: nonce :: destination :: data\n        bytes32 h = keccak256(byte(0x19), byte(0), this, listOwner, nonce[claimedSender], destination, data);\n        address addressFromSig = ecrecover(h, sigV, sigR, sigS);\n\n        require(claimedSender == addressFromSig);\n\n        nonce[claimedSender]++; //if we are going to do tx, update nonce\n\n        require(destination.call(data));\n    }\n\n    /*\n     * @dev Gets an address encoded as the first argument in transaction data\n     * @param b The byte array that should have an address as first argument\n     * @returns a The address retrieved from the array\n     (Optimization based on work by tjade273)\n     */\n    function getAddress(bytes b) public constant returns (address a) {\n        if (b.length < 36) return address(0);\n        assembly {\n            let mask := 0xFFFFFFFFFFFFFFFFFFFFFFFFFFFFFFFFFFFFFFFF\n            a := and(mask, mload(add(b, 36)))\n            // 36 is the offset of the first parameter of the data, if encoded properly.\n            // 32 bytes for the length of the bytes array, and 4 bytes for the function signature.\n        }\n    }\n\n    /*\n     * @dev Returns the local nonce of an account.\n     * @param add The address to return the nonce for.\n     * @return The specific-to-this-contract nonce of the address provided\n     */\n    function getNonce(address add) public constant returns (uint) {\n        return nonce[add];\n    }\n\n    /*\n     * @dev Adds a number of addresses to a specific whitelist. Only\n     * the owner of a whitelist can add to it.\n     * @param sendersToUpdate the addresses to add to the whitelist\n     */\n    function addToWhitelist(address[] sendersToUpdate) public {\n        updateWhitelist(sendersToUpdate, true);\n    }\n\n    /*\n     * @dev Removes a number of addresses from a specific whitelist. Only\n     * the owner of a whitelist can remove from it.\n     * @param sendersToUpdate the addresses to add to the whitelist\n     */\n    function removeFromWhitelist(address[] sendersToUpdate) public {\n        updateWhitelist(sendersToUpdate, false);\n    }\n\n    /*\n     * @dev Internal logic to update a whitelist\n     * @param sendersToUpdate the addresses to add to the whitelist\n     * @param newStatus whether to add or remove addresses\n     */\n    function updateWhitelist(address[] sendersToUpdate, bool newStatus) private {\n        for (uint i = 0; i < sendersToUpdate.length; i++) {\n            whitelist[msg.sender][sendersToUpdate[i]] = newStatus;\n        }\n    }\n}\n",
  "sourcePath": "/myproject/dapps/contracts/uport-identity/TxRelay.sol",
  "compiler": {
    "name": "solc",
    "version": "0.4.24+commit.e67f0147.Emscripten.clang"
  },
  "schemaVersion": "2.0.1",
  "updatedAt": "2018-10-08T14:04:15.300Z"
}